:020000021000EC
:1080000000400020B9BC0100F9BC0100FBBC01002C
:108010000000000000000000000000000000000060
:10802000000000000000000000000000FDBC010096
:108030000000000000000000FFBC010001BD0100C5
:1080400003BD010003BD0100E5C0010003BD010047
:1080500003BD01000000000003BD010003BD0100DD
:1080600003BD010003BD010003BD010003BD01000C
:1080700003BD010003BD010003BD010003BD0100FC
:1080800003BD010045C3010003BD010003BD0100A4
:1080900003BD010003BD010003BD010003BD0100DC
:1080A00003BD010003BD010000000000000000004E
:1080B00000000000000000000000000000000000C0
:1080C00010B5064C2378002B07D1054B002B02D0AE
:1080D000044800E000BF0123237010BDA02400204D
:1080E000000000002431020008B5084B002B03D02B
:1080F0000748084900E000BF07480368002B03D089
:10810000064B002B00D0984708BDC0460000000079
:1081100024310200A42400209C2400200000000040
:10812000164B002B00D1144B9D46402292029A1A06
:10813000924600218B460F461348144A121A00F04B
:108140005FF80F4B002B00D098470E4B002B00D050
:1081500098470020002104000D000D48002802D09F
:108160000C4800F033F900F027F82000290004F053
:1081700077F900F011F8C046000008000040002028
:108180000000000000000000A02400207C29002046
:10819000CD830100DD83010010B50021041C00F037
:1081A00089F8044B1868C36B002B00D09847201C3B
:1081B00000F08CF9B81D020070B50D4E0D4D002475
:1081C000AD1BAD1005D0A300F35801349847A5426C
:1081D000F9D109F0E3FD084E084D0024AD1BAD10A8
:1081E00005D0A300F35801349847A542F9D170BDDA
:1081F0008024002080240020802400209824002057
:10820000F0B5830746D0541E002A42D0CEB2031CDC
:10821000032503E0621E002C3BD0141C01335A1EC0
:1082200016702B42F6D1032C2BD9FF250D402A02C4
:1082300015432A0415430F2C15D9271C103F3F095D
:108240001E1C3A011036B6181A1C15605560956050
:10825000D5601032B242F8D101373F010F22DB194D
:108260001440032C0DD9271FBF08BA001E1DB618D5
:108270001A1C20C2B242FCD10137BF000322DB1915
:108280001440002C05D01C19C9B219700133A34247
:10829000FBD1F0BD141C031CC5E7C04608B5034B59
:1082A000002B02D0024800F091F808BD0000000049
:1082B000DD830100F0B55F4656464D464446F0B4B6
:1082C000404B85B01B68029001934933FF33039301
:1082D0000F1C0198A421490042589046002A4AD018
:1082E0000398814641464E68741E41D44546A3001A
:1082F0008835ED18C620C42301365B004000B60067
:108300009B4682464644C344C24408E02B1C80334B
:108310001B68BB4205D0043D043E013C28D3002F1E
:10832000F4D141464A683368013AA2422CD0002277
:108330003260002BEFD04046594640680122096860
:10834000A240009011421DD05046006810421DD13D
:1083500002982968984741464968009A9142B8D1E5
:108360004A4612684245B4D1043D043E013CD6D28F
:10837000154A002A0DD105B03CBC90469946A2464C
:10838000AB46F0BD9847E6E74C60D2E728689847CF
:10839000E1E743465B684046002B0DD10368002BA4
:1083A0000ED049460B6006F05DFE4B461A689046BB
:1083B0004146002996D1DEE70368C1469846F7E7B3
:1083C0000023FAE7B81D020065F0010008B5011CA2
:1083D00000220020002300F019F808BD38B5094B31
:1083E000094DED1AAD1009D0013DAC00E41800E0D4
:1083F000013D23689847043C002DF9D109F0D4FCD5
:1084000038BDC046982400209C240020F0B54F467B
:108410004646C0B498462B4BA4251B686D005C599A
:1084200083B0061C0F1C91460193002C44D0656854
:108430001F2D1ADD244B002B02D1012040421CE0ED
:10844000C820400006F004FE041EF6D0002545605A
:10845000A42301985B00C05801992060CC50C4232C
:108460005B00E550C6235B00E550002E0AD16B1C73
:108470000235AD00636000202F5103B00CBC904664
:108480009946F0BDAB00E318882248469850C420B6
:108490004000221810680121A9400843106084227E
:1084A000520040469850022EE1D1C6225200A31835
:1084B000186801431960DAE71C1C4D34FF345C5125
:1084C000B5E7C046B81D020051F00100FEE7C04606
:1084D00045DF704710B5034B041C036001F084FDB9
:1084E000201C10BD882A020010B5034B041C036039
:1084F000FFF7F0FF201C10BDD81D020010B5034B84
:10850000041C0360FFF7F0FF201C10BD081E0200D2
:1085100010B5041CFFF7DEFF201C03F0B5FF201C84
:1085200010BD10B5041CFFF7DFFF201C03F0ACFFEB
:10853000201C10BD10B5041CFFF7E0FF201C03F049
:10854000A3FF201C10BD30B5002938DBC31DDB7F25
:10855000994234DA002A32DB041C0834E47FA24258
:108560002DDAC47C012C11D0002C1BD0022C26D17A
:10857000D4106343C9188368591807231A4001238C
:1085800093401A1C0B785A400A7018E0D5106B43C0
:10859000C9188368591807231A4094400A7814436D
:1085A0000C700CE0D4106343C91883685918072372
:1085B0001A40012393401A1C0B7893430B7030BD73
:1085C000F0B593B00D9318AB1B880E1C119319AB2B
:1085D00019884369041C9D780292D8785A78A37C44
:1085E0000A95022B0AD0032B03D0012B09D1731A51
:1085F00006E0029F5310FB1A1DB202954B10F31AAE
:108600001EB2CE4200D5E3E0E31DDB7F9E4200DDDB
:10861000DEE0029FD74200D5DAE0231C0833DB7F7F
:108620009F4200DDD4E0013AD210FD1001328300F8
:108630000D9FD2B204331095002509920E93059731
:108640000695059D0D9FEB1B119D9BB2AB4200D380
:10865000BEE0059F0A9D3B78AB4200D2B4E05B1BB5
:108660006769DBB29B00FB181A7959799879DB7935
:108670000C970793FF2A07D1FF2905D1069F079D75
:10868000EB19DBB206939FE0231C0833DB7F029DCE
:108690009D42F3DC069F079DBB199BB20B931BB257
:1086A000EB42EBD4E51DED7FAB42E7DC029F0723F5
:1086B0001F4008900497002803D1099D079F7D4320
:1086C00008950E9D120249198A1892B200270F923E
:1086D0000397039F089DBBB2AB42CFD20C9D0F9F67
:1086E0000999EB19039F381CDD5D03F0D3FF0B994B
:1086F000E31DDB7F0F1803980999019304F020F81C
:10870000109A019B51185943BFB2791809B2002938
:1087100056DB238D994253DA3FB2002F50DB01988C
:1087200087424DDAE37C012B0BD0002B11D0022BBA
:1087300017D1A068049F431818782A1CBA404240F9
:108740000EE0A268049F531818782A1CBA4002430E
:1087500006E0A068049F43181A78281CB84082439A
:108760001A70E31DDB7F228DD21A914226DAE27C59
:10877000012A0DD0002A15D0022A1FD1A068049F1B
:10878000CB180822D21BC31815411A78554014E0A3
:10879000A068049FCB180822D21BC31815411A7871
:1087A00015430AE0A068049FCB180822C318D21B07
:1087B00015411A78AA431A7000E01D7003F0D0FD2D
:1087C000039D0135039584E7059F0137059738E739
:1087D00013B0F0BDF0B5406900248678231C013A3F
:1087E0000C4D92B2AA420FD08D5CAF1BBF00C719CF
:1087F000FF79DB199BB20A2DF1D11D1CA34200D2D7
:10880000251CACB20023EAE7181CA34200D2201CAE
:1088100080B2F0BDFFFF000008B50021028D806826
:10882000FFF7EEFC08BD000043B20C4A002B02DB50
:108830000023137010E013781070C22B0CD0C32BE0
:1088400006D0822B07D1AC3843425841C00103E027
:10885000C023184300E000207047C046F0240020E9
:10886000F8B5068B041C0D1C002E3DD00D293BD005
:10887000428B838BC18BB242B6418B428941764297
:108880004942002E10D0002910D0036A281C9E18DF
:10889000FFF7CAFF3070638B013363830A2D23D146
:1088A000A38B0133A3831FE0002901D1013BA383E4
:1088B000002399B291420FD2206AC75C01330A2F7C
:1088C000F7D1013189B2002906D0521A92B26283DF
:1088D000411806F0D1FB02E0002E00D16683236828
:1088E000201C1B68291C98470120F8BDF8B5078992
:1088F000051C7E1CB6B2301C06F0AAFB041E01D17A
:10890000286818E0281C321C211C002303F0CFFC2F
:10891000261C0025331B9BB2BB4209D23078FFF7DF
:1089200083FF002802D06B1C60559DB20136F1E731
:1089300000236355201CF8BDF0B58BB0049242694A
:10894000051C5278059107A8191C039203F068FCD6
:1089500007A8FFF7CBFF061C07A803F0D9FBAB7CE9
:108960000027032B0FD13B1CF25D002A07D00A3AE7
:1089700051424A419B1801379BB2BFB2F4E7039FB3
:108980005F437F10BFB2301C144906F0A1FC049B6A
:10899000041CDF1BBFB2002C1AD0201C06F07CFC8C
:1089A00080B20490211C049A281CFFF713FF049B3B
:1089B0003AB200930190231C281C0599FFF700FE92
:1089C0000020064906F084FC039A041CBF18E1E766
:1089D000301C06F047FB0BB0F0BDC046622E020013
:1089E00038B5041C0F202056002807DB012103F0B6
:1089F0007BFD0F202056012103F094FD207C0121F6
:108A000003F072FD607C012103F06EFD0220012164
:108A100003F06AFD0120011C03F066FD207C0021AB
:108A200003F080FD0121607C03F07CFD144D281CC7
:108A300001F05EFA134B281C19685A689B6801F014
:108A400073FA0F202056002817DB012103F04CFD9C
:108A50000F200121205603F065FD052003F064FC82
:108A60000F200021205603F05DFD0A2003F05CFC7E
:108A70000F202056012103F055FD012038BDC046CE
:108A8000EC280020C424002038B5041C0D1C007CF8
:108A9000002103F047FD607C002103F043FD291C09
:108AA000034801F047FA607C012103F03BFD38BD2B
:108AB000EC28002010B5A121041CFFF7E5FF201CC5
:108AC000C821FFF7E1FF10BD10B5AE21041CFFF770
:108AD000DBFF201CD521FFF7D7FF201C8021FFF7EB
:108AE000D3FF201CA821FFF7CFFF231C0833D97F19
:108AF000201C0139C9B2FFF7C7FF201CD321FFF7A3
:108B0000C3FF201C0021FFF7BFFF201C4021FFF7FF
:108B1000BBFF201C8D21FFF7B7FF201C1421FFF79E
:108B2000B3FF201C2021FFF7AFFF201C0021FFF71F
:108B3000ABFF201CA121FFF7A7FF201CC821FFF7D6
:108B4000A3FF201CDA21FFF79FFF201C1221FFF753
:108B50009BFF201C8121FFF797FF201CCF21FFF7EF
:108B600093FF201CD921FFF78FFF201C1F21FFF747
:108B70008BFF201CDB21FFF787FF201C4021FFF724
:108B800083FF201CA421FFF77FFF201CA621FFF7F5
:108B90007BFF201C0221FFF777FF201CAF21FFF78E
:108BA00073FF10BDF7B50193051C0F1C007C01215C
:108BB000161C03F0B7FC687C002103F0B3FC341CE6
:108BC000019AB3189C4206DA395D0548013401F078
:108BD000B1F9A4B2F4E7687C012103F0A3FCF7BD6E
:108BE000EC28002010B52121041CFFF74DFF201CAC
:108BF0000021FFF749FFE31DD97F201C0139C9B2CD
:108C0000FFF742FF201C2221FFF73EFF201C00211E
:108C1000FFF73AFF231C0833D97F201CC90801390C
:108C2000C9B2FFF731FFA168238D201C0022FFF796
:108C3000B9FF10BD38B5041C0025231C0833DB7FA9
:108C4000DB089D4219D2B0212943201CFFF71CFFED
:108C5000201C0021FFF718FF201C1221FFF714FF32
:108C6000E31DDB7F201C1A1C6A43A1680135FFF756
:108C700099FFEDB203F074FBDFE738BD07B5831D44
:108C8000DA7F002A05D1FF2100920B1CFFF7AAFF13
:108C900005E00022FF2100920B1CFFF7CBFF07BD70
:108CA00010B5041CFFF7B8FD201CFFF7E7FF10BD4F
:108CB00038B5C31DDA7F4021002391425B41821DFC
:108CC000D3770B49041CFFF78BFE051E01D100254D
:108CD0000BE0208D06F0BCF9A0600028F7D0201C26
:108CE000FFF7F2FE201CFFF7DBFF281C38BDC04653
:108CF00060AE0A0038B505680C1C281C002103F082
:108D00007BFD00280AD080231B06E818104903F0D9
:108D1000B9FF03F0BBFD2D2385B207E0281C0C49E9
:108D200003F0B0FF03F0B2FD202385B22370281CAE
:108D30000A2103F061FC2E2330306070A370281CE0
:108D40000A2103F09DFC00233031E170237138BD0E
:108D500000002041F0B589B000F0CAFD2A4D041C86
:108D6000281CFFF759FD05A8284903F018FA00212F
:108D70000A1C05AB281CFFF7DFFD05A803F0C8F9A6
:108D8000201C00F07FFD071C201C00F083FD061C4A
:108D9000201C00F087FD3A1C331C00901C4902A8DF
:108DA00006F046FA02A905A803F0F9F905AB00217F
:108DB0000A22281CFFF7C0FD05A803F0A9F9201C12
:108DC00000F048FD071C201C00F04CFD061C201C78
:108DD00000F050FD3A1C331C00900E4902A806F02A
:108DE00027FA02A905A803F0DAF90021142205AB3D
:108DF000281CFFF7A1FD05A803F08AF9281CFFF73E
:108E00003DFF09B0F0BDC04698260020301E02008C
:108E1000361E0200451E020038B5094D0024281CEC
:108E2000FFF7FAFC074AA30021B2D25E0134281CE6
:108E3000FFF789FB402CF5D1281CFFF71FFF38BD39
:108E400098260020C4260020F0B587B02E49684639
:108E500003F0A5F92D4C201CFFF7DEFC00231A1CA3
:108E60002B49980041580E3901290ED8002A45D1C6
:108E70001D1C291D01228B4207DD1F1C3A1D934238
:108E800001DC022201E01E1C03220133402BE7D14A
:108E9000032A11D1751BC0206421684303F0FAFB3B
:108EA0000A22011C03A803F0DEF9684603A903F0B7
:108EB000C1F903A803F02CF903A8164903F06FF9D0
:108EC00000210A1C03AB201CFFF736FD03A803F0AA
:108ED0001FF9694603A803F0A3F900210A2203AB96
:108EE000201CFFF729FD03A803F012F9201CFFF74F
:108EF000C5FE684603F00CF907B0F0BD012AB8D0F2
:108F0000022AC2D1BAE7C046632E0200982600208A
:108F1000C4260020541E020010B586B068461B49C6
:108F200003F03DF91A4B0A22196803A803F0ADF9C2
:108F300003A9684603F07EF903A803F0E9F8154C8D
:108F4000201CFFF769FC03A8134903F028F900214E
:108F50000A1C03AB201CFFF7EFFC03A803F0D8F8B2
:108F6000694603A803F05CF900210A2203AB201C28
:108F7000FFF7E2FC03A803F0CBF8201CFFF77EFE0E
:108F8000684603F0C5F806B010BDC046632E020067
:108F90007026002098260020581E02001FB5174C8E
:108FA000201CFFF739FC01A8154903F0F8F800214F
:108FB0000A1C01AB201CFFF7BFFC01A803F0A8F8B6
:108FC00001A8104903F0EBF801AB0A22201C002194
:108FD000FFF7B2FC01A803F09BF801A80A4903F0CF
:108FE000DEF80021142201AB201CFFF7A5FC01A82C
:108FF00003F08EF8201CFFF741FE1FBD98260020CD
:109000005F1E0200631E0200661E020010B5064CC1
:109010000F21201C002200F034FD201C0121002221
:1090200000F044FD10BDC046C827002010B5244CF8
:109030000721201C172200F024FD0321201C0A1CFC
:1090400000F01FFD0421201C0A1C00F01AFD201C4A
:109050000521302200F015FD201C0821992200F086
:1090600010FD201C0921082200F00BFD201C0A2104
:10907000082200F006FD201C0F21BB2200F001FD9C
:10908000201C0121772200F011FD201C0B2104225D
:1090900000F00CFD201C0221212200F007FD201C05
:1090A0000721032200F002FD201C0A21702200F09B
:1090B000FDFC201C18210D2200F0E3FC10BDC04671
:1090C000C82700202748F8B54169274D296000F0DE
:1090D0003BFD2B68002B01DA00232B60234E2B680D
:1090E0003268934203DD224A934200DC3360214C14
:1090F0002268934203DA204A934200DD236003F0A2
:10910000F3F81E4FFA213A68C900531898420FD954
:1091100023683268D11A1A4A11601A4A13601A4A2F
:1091200000232260194A3360136003F0DDF83860D1
:1091300003F0DAF8154E114B34681B686201D3183E
:1091400098420DD90F4B28681B68A700C01A0C4B1A
:109150004001196803F09EFA0D4B0134F850346059
:10916000F8BDC046C827002070260020FC2700203C
:10917000FF64CD1D3C24002020A10700EC2400202A
:1091800038240020BC240020FFE30B5404280020D6
:10919000C426002070B5041C0E1C41790068151C03
:1091A00000F0DCFD2068311C03681B6898472068CC
:1091B000291C03681B689847206800F039FE70BDC1
:1091C0002A4B802270B51206294E0024FF211A6016
:1091D00002229C601A71301C0B1C0A1C01F042FA1E
:1091E000244D301C2A1C244903F0C4F92349244887
:1091F00001F00FFB234E2449301C0A2201F012FB20
:109200002A1C301C214903F0B5F9214B08221A71A0
:109210001F225A711F4A20491A60204B10205961A1
:10922000591DC8771E491F4E19601E210122D9738E
:109230001D215C609C74DA741C835C839C83DC83DA
:109240001C625974301C211C1C7400F0BCFB164BB2
:10925000164CB4221E601A71201C154902F09FFFA3
:109260002A1C201C134903F085F970BDC42400207A
:10927000F424002000200020D1A501006E1E020071
:10928000E424002074260020931E0200FD840100C7
:10929000DC24002028280020D21E0200982600206E
:1092A000C81D0200F1240020C8270020D02400207F
:1092B000632E020011C1010070B5051C0E1C41791E
:1092C0000068141C00F04AFD2868211C03681B6814
:1092D0009847164C201C00F0ABFD6979201C062233
:1092E00000F037FD201C00F065FC00281DD0201C7C
:1092F00000F05BFC051C201C00F057FC000205433D
:109300003580201C00F051FC051C201C00F04DFC99
:10931000000205437580201C00F047FC051C201C42
:1093200000F043FC00020543B58070BD28280020F2
:10933000F0B5464D87B003AC0026211C281C062240
:109340000396A680FFF7B8FF2A79414BD21092000E
:10935000D5580023E05E03F04FFF291C03F0AEFA5E
:109360003C4F38600223E05E03F046FF291C03F007
:10937000A5FA78600423E05E03F03EFF291C03F0A9
:109380009DFA354DB860281CFFF746FA381C01A934
:10939000FFF7B0FC201C314902F001FF321C231CF6
:1093A000311C281CFFF7C8FA201C02F0B1FE01A9ED
:1093B000201C02F0F4FE321C231C281C0A21FFF79B
:1093C000BBFA201C02F0A4FE381D01A9FFF792FC95
:1093D000201C234902F0E3FE231C311C0A22281C16
:1093E000FFF7AAFA201C02F093FE01A9201C02F04C
:1093F000D6FE0A210A1C231C281CFFF79DFA201CFC
:1094000002F086FE381C01A90830FFF773FC201C0F
:10941000144902F0C4FE231C311C1422281CFFF73F
:109420008BFA201C02F074FE01A9201C02F0B7FE8A
:109430000A211422231C281CFFF77EFA201C02F0AC
:1094400067FE281CFFF71AFC07B0F0BDDC240020E3
:1094500080290200F027002098260020B81E020074
:10946000BB1E0200BE1E0200013808B5042813D836
:1094700003F0B8F80306090C0F00FFF76BFC0DE0D2
:10948000FFF756FF0AE0FFF7C7FC07E0FFF7DCFC39
:1094900004E0FFF741FD01E0FFF780FD08BD00009B
:1094A00073B5404A4049C023DB00D1503F4800F02B
:1094B00005FA3F4800F0C2FB3E4C3F49201C00F03B
:1094C00033FF3E4D281C00F062FD011C201C00F003
:1094D00028FF201C291C01F076F8394E201C311D74
:1094E00001F071F86946012200250731301C0D702A
:1094F00000F091FD201C00F04DFF0420022102F03D
:10950000F3FF291C072002F0EFFF0121062002F0E3
:10951000EBFF2C4C08232068237100F08FFB201CEC
:1095200018214022FFF736FE201C1B210222FFF7E4
:1095300031FE201C1A21D822FFF72CFE201C2221EC
:109540000122FFF727FE182002F0EEFE1821201C52
:10955000C022FFF71FFE1C4C4022E31DDA77231CBC
:1095600020220833DA7780235B002385201CFFF755
:109570009FFB201CFFF79EFA144BA5746361144BEC
:109580001878FFF771FF02F0AFFE124B186002F07F
:10959000ABFE114B80221860104BBB21D205D1507D
:1095A00073BDC046000001403546526E52A9925B21
:1095B00028280020F4240020C11E0200E4240020FA
:1095C00074260020DC24002098260020D21E0200F1
:1095D0003424002000280020EC2400201C0500007A
:1095E000F0B5C023424C434DDF0085B0E551042067
:1095F00002F0AEFF002812D10120E5514042FEF7F3
:1096000067FF3D4B8022BB21D205D150BFF34F8F66
:109610003A4A3B4BDA60BFF34F8FC046FDE739480B
:1096200000F073FE384E301C00F0B7FC0190301C87
:1096300000F0B1FC021C68460F30019905F01CFDDA
:109640006A46D37B002B13D0301C00F025FD002888
:109650000ED0294B8022BB21D205E551D150BFF35A
:109660004F8F264A264BDA60BFF34F8FC046FDE787
:10967000072002F06DFF254C002815D0227800232A
:10968000042A01DC531CDBB2C8208000237002F0E6
:109690004BFE0121062002F045FF282002F044FE87
:1096A0000620002102F03EFF02F01EFE184D2B683E
:1096B000C01A142805D902F017FE28602078FFF799
:1096C000D3FE2378134C033B022B09D82268002ACF
:1096D00001D1FFF7ABFCFFF7F5FC0123236003E0AA
:1096E00000232360FFF792FC02F03AFE05B0F0BDC4
:1096F000000001403546526E1C0500000400FA05CA
:1097000000ED00E0F4240020742600203424002022
:1097100000280020C0240020F7B50C1C3C21051CAB
:1097200002F0AEFF281C21703C2102F065FF3C21B5
:10973000051C02F0A5FF281C61703C2102F05CFFB3
:109740001821051C02F09CFF281CA170182102F0B2
:1097500053FF07210090043002F092FF00260131F0
:10976000E170371C314BFD1803232B4001930ED1C0
:10977000281C642102F0E4FF00290BD1C821281C19
:10978000490002F0DDFF4B4259416E3100E06E218D
:10979000FF3101E0B7214900009B76189E4202D8B4
:1097A0000137FFB2DEE7019BA771002B0ED1281C09
:1097B000642102F0C5FF00290BD1C821281C4900F3
:1097C00002F0BEFF4B4259416E3100E06E21FF3185
:1097D00001E0B7214900009B761A281C64219E1BDA
:1097E00002F0AEFF0F1CC821281C490002F0A8FFA0
:1097F0000023D8B201280AD1019D1C22002D08D1D6
:109800001D22002F05D14A424A411C3201E0084A7C
:109810009A5C964204D30133B61A0C2BE9D1181C7A
:109820000136013026716071F7BDC046B2070000F5
:109830008C29020038B5054D041C2B68984203D0D2
:109840000349FFF769FF2C6038BDC0460828002097
:109850000C28002008B5FFF7EDFF014B987808BDF4
:109860000C28002008B5FFF7E5FF014B587808BD2C
:109870000C28002008B5FFF7DDFF014B187808BD64
:109880000C28002008B5FFF7D5FF014B187908BD5B
:109890000C28002008B5FFF7CDFF014B587908BD13
:1098A0000C28002008B5FFF7C5FF024B9879024B42
:1098B000C01808BD0C280020B207000008B5074BEF
:1098C00002221860064B1B68C018064B1860064B36
:1098D0001A7002F009FD054B186008BD142800201D
:1098E00040240020242800201828002020280020C0
:1098F00038B502F0F9FC154A15491368154CC01A21
:10990000884207D9216801312160FA2189005B185A
:109910001360EEE7104D23682A689A4213D80F4B64
:109920001B68002B0FD09847002802D0FFF7C6FF16
:1099300009E00B4B21681B685B182B60094B1A78F8
:10994000511E8A411A70206838BDC0462028002068
:10995000E703000014280020242800201C280020F1
:10996000402400201828002000280DD00138C046CF
:10997000C046C046C046C046C046C046C046C046B7
:10998000C046C046C046F1D1704710B54142414182
:10999000041C162002F0A8FD1620211C02F0C2FDB6
:1099A00010BD08B54078FFF7DFFF1720012102F056
:1099B000B9FD08BD08B54078FFF7D6FF1720002194
:1099C00002F0B0FD08BD10B54270041C017001200A
:1099D000FFF7DBFF0121172002F086FD201CFFF7B7
:1099E000E0FF201C10BD10B5041C0020FFF7CDFFC8
:1099F000201CFFF7D6FF0120FFF7C7FF10BDF8B509
:109A0000041C0F1CFFF7D6FF08258026381C3040A9
:109A1000FFF7BBFF201CFFF7C4FF013D201CFFF731
:109A2000C9FF7608002DF1D10120FFF7AEFF201C01
:109A3000FFF7B7FF162002F08BFD051C201CFFF777
:109A4000B9FFE8B245426841C0B2F8BD08B5FFF7BA
:109A5000D6FF08BD38B5041C0D1CFFF7ABFF201C5A
:109A6000FFF79FFF0020FFF790FF291C201CFFF746
:109A7000C6FF38BD08B5031C19790068FFF7EAFF77
:109A800008BD70B5041C0E1C151CFFF7F3FF311C3C
:109A90002068FFF7DBFF291C2068FFF7D7FF20684D
:109AA000FFF7A1FF0A2002F03FFC70BD70B5041C57
:109AB000161C0D1CFFF7DEFF20681721FFF7C6FFFD
:109AC000311C2068FFF7C2FFA02129432068FFF75F
:109AD000BDFF2068FFF787FF0A2002F025FC70BD5C
:109AE00008B5031C1B79012100681943FFF7B2FF79
:109AF00008BDF7B5041C0191082680270025201C0D
:109B0000FFF74FFF162002F023FDC0B2002800D05F
:109B10003D43201C013EFFF74DFF7F08002EEED194
:109B20000198FFF732FF201CFFF73BFF201CFFF7D7
:109B300041FF019B002B02D0201CFFF754FF0120A6
:109B4000FFF723FF281CFEBD70B5041CFFF792FF32
:109B500026212068FFF77AFF201CFFF7C1FF261C93
:109B60001436002520680021FFF7C3FF705501352A
:109B7000062DF7D101212068FFF7BBFF2068FFF712
:109B800032FF70BDF8B5051C0F1C161C0024B44232
:109B900008D02B68395D1B68281C9847002801D025
:109BA0000134F4E7201CF8BD704708B51C3002F002
:109BB0005BF808BD08B51C3002F064F808BD38B584
:109BC000437E0D1C002B06D0041C6434201C02F0C4
:109BD00068F8002801D0002004E0201C291C02F0B5
:109BE00034F8012038BD08B51C3002F051F808BD2A
:109BF000F7B50193FA239B0083600E4B00250833D1
:109C0000041C456003601C300F1C161C02F012F887
:109C1000201C643002F00EF8074BB600F258019990
:109C200062758A00D35827616576A576201CA375D6
:109C3000FEBDC04698290200782C0200817D0123D8
:109C4000C131C3750D4AA023FF31DB058900CA501D
:109C5000417DC131FF318900CA500369084ACC21D6
:109C600049049950A0220521D2009950817DA1225A
:109C7000D2009950417D034A995070470C0600006C
:109C8000240500000C050000F7B5041C00200D1C85
:109C9000019382425CD0161E402E00D94026271C1C
:109CA0001C37381C01F0DCFF2369B122D20080216F
:109CB0009D50890001225A50A17E002901D11A62CB
:109CC0001A600025731E22699D4206D1019B002B5C
:109CD00003D0022180238B40D15001231362131C37
:109CE000FC33D968002902D1996A0029F7D0996A12
:109CF00000290AD1D960A323DB00D158381CC9B28E
:109D0000013501F0A2FFB542DCD3019A2369002A94
:109D100004D11A1CFC32916A00290AD000220121C8
:109D2000A2765961191CFC3188680028FAD08A6033
:109D300007E00121A176D961D16C0029FCD0002176
:109D4000D164FC339A6A002A01D000229A62E8B2F8
:109D5000FEBD08B50123FFF797FF08BD10B5031C32
:109D6000AC33041C1970643001F07AFF0123637670
:109D700010BD0000F8B500220D1C011C4276AC316C
:109D80000369041C0878B121C9005850802189005A
:109D90005A5001221A629A60261C6436301C01F067
:109DA00071FF00280FD0301C276901F05DFF1E4BAA
:109DB0002269F850131CFC33196A00290CD1996AE6
:109DC000002909D1F6E72369002D0AD11A1CFC32BB
:109DD000916A002905D10EE09A6A002AF3D11A622D
:109DE000DAE701225A611A1CFC3291680029FAD084
:109DF0000021916006E00121D961D16C0029FCD0DD
:109E00000021D1641A1CFC32916A002081420AD0E0
:109E1000064990625A5802205A50824203D0043AAE
:109E2000501E8241D01CF8BD1C050000C404000077
:109E300008B50121FFF79EFF08BD000008B50348E3
:109E400003490E221023FFF7D3FE08BD2828002067
:109E50000040004038B504AC257800240473A142CA
:109E600005D10A4823210A4A0A4B05F0B1F80160DE
:109E70000949920052589B0002715B588371AB00F4
:109E80005B58846043710223C37138BDF529020019
:109E9000B8290200422A0200782C0200037B002B22
:109EA00004D143738373036101230373704700007C
:109EB0001FB501910168A020C0000024D2B20C504F
:109EC000012A07D0A24203D0032A05D1042202E0CE
:109ED000022200E006221343034A8B50034B019AEF
:109EE000CA5001230B501FBD54050000240500007B
:109EF00010B5041CFFF7D2FF2368A179A122D2007C
:109F000099506179064A201C99502179A222D200E9
:109F10009950044B19685A689B68FFF7C9FF10BD38
:109F20000C050000E02800201FB5FFF7C1FF05B0B9
:109F300000BD00000368074A99501A1CFC32D16822
:109F40000029FAD0A321C90058580023C0B2D36019
:109F50007047C0461C05000007B5084B8022D2059B
:109F60001A6000229A6002221A710548009205497F
:109F700003220123FFF76EFF07BDC046E028002043
:109F8000EC280020003000400160828070470068AB
:109F9000704780887047807A7047C0687047007C3F
:109FA000704700207047C368585C704770B50D1C3F
:109FB0000168041CCE69111C1A1CB0470123A3744C
:109FC000A369002B02D0281C211C984770BD38B50E
:109FD000051C081C0C1C05F05FF92B68C2B2DB697C
:109FE000281C211C984738BD054B10B50833041CAC
:109FF0000360C068002801D005F034F8201C10BDB3
:10A00000502A020010B5041CFFF7EEFF201C02F0DE
:10A010003BFA201C10BD10B5041C807A131C824230
:10A0200000D9031CDAB22374E06805F025F86069F2
:10A03000002804D00368211C1B68984700E0012019
:10A0400010BD000070B5041C161C04300F4A1D1C06
:10A0500000F04AF80E4B083323602B1C142D00D956
:10A0600014230021201CA372E16021746674A17482
:10A07000E174616118300C22FEF7C2F8002D03D0A4
:10A08000A07A04F0E5FFE060201C70BD032800000A
:10A09000502A0200407C7047031C0022807C9A7486
:10A0A0007047C07C704708B5031CC27450424241DF
:10A0B00007329200D258002A02D0081C191C90477F
:10A0C00008BD4161704701207047000038B5041C8D
:10A0D0001D1CFFF7B7FF034B25740833201C2360BA
:10A0E00038BDC046802A020010B5041CFFF74CFFA3
:10A0F000024B201C1A7801321A7010BD0029002072
:10A10000014B18787047C0460029002008B5C06888
:10A1100003681B6A984708BD08B4024B9C46043884
:10A1200008BC60470DA1010008B5C06803685B6A00
:10A13000984708BD08B4024B9C46043808BC6047E9
:10A1400029A1010008B5C06803689B6A984708BD4B
:10A1500008B4024B9C46043808BC604745A1010086
:10A1600008B5C0680368DB6A984708BD08B4024BAD
:10A170009C46043808BC604761A1010008B5C0686E
:10A1800003681B6B984708BD08B4024B9C4608380F
:10A1900008BC60477DA1010008B5C06803685B6B1F
:10A1A000984708BD08B4024B9C46083808BC604775
:10A1B00099A1010008B5C06803689B6B984708BD6A
:10A1C00008B4024B9C46083808BC6047B5A10100A2
:10A1D00010B5C0680468E46BA04710BD08B4024B1A
:10A1E0009C46083808BC6047D1A1010008B5C0688A
:10A1F00003681B6C984708BD08B4024B9C4608389E
:10A2000008BC6047EDA1010008B5C06803685B6C3D
:10A21000984708BD08B4024B9C46083808BC604704
:10A2200009A2010008B5C06803689B6C984708BD87
:10A2300008B4024B9C46083808BC604725A20100C0
:10A2400008B5C0680368DB6C984708BD08B4024BCA
:10A250009C46083808BC604741A2010008B5031CB1
:10A26000FC339B6F002B02D06130FF30984708BD54
:10A2700008B5031CFC33DB6F002B02D06130FF30CC
:10A28000984708BD70B51468B0261D1C760004AB55
:10A2900081191B78101C646A2A1CA04770BD704786
:10A2A0007047704738B5B0235B00C418051C111CFB
:10A2B000201CFC3501F050FC2B6F002B01D0201C22
:10A2C000984738BD031CFC33B0225B6F520010B5B9
:10A2D0008418002B01D0201C9847201C01F042FC60
:10A2E00010BD10B5B02464000119101C1A1CFFF732
:10A2F000DAFE10BD08B5011C6131101C1A1C02AB3E
:10A300001B78FF3100F068FA08BD08B5C068036823
:10A31000DB68984708BD08B5C06803681B699847A3
:10A3200008BD8C30016070479C300160704770B58B
:10A33000041CA8342368051C0E1C002B05D100F05A
:10A3400017FA800004F084FE2060281CAC300278EC
:10A3500023689200D65003780133037070BD10B5A6
:10A36000041CFFF7CDFE800004F072FE231CA03316
:10A370001860103303600C334360243383608622FB
:10A38000631CFF335200C360A3180361A434052388
:10A39000237010BDF0B5031CAFB00EA9002690339A
:10A3A0000E701968041CB1421CD008A800F052FAC3
:10A3B00008A800F080FA022282427641152216ABEC
:10A3C000961B051C18705E7008A800F072FA1A2619
:10A3D000011C68462A1C761B5A3004F04DFEF6B26A
:10A3E000012501E01C260D1C231C8C331968002953
:10A3F00025D008A800F02EFA08A800F05CFA431C4B
:10A40000071CB3421BDA1F23191C694316AA885480
:10A41000191C0223984200D90623694351184B7036
:10A4200008A8079100F045FA011C07983A1C023071
:10A4300004F022FE023E0135F61BEDB2F6B2231CFB
:10A4400094331968002915D01A79002A12D0022EE7
:10A4500010D9531CB34201DB023EF2B21F20684305
:10A4600016ABC2541818FF234370023004F004FEE8
:10A470000135EDB2231C9C331E68002E19D0301C10
:10A4800004F00AFFC0B21D2802D80EAA107002E024
:10A490001D230EA90B700EAB1A78002382425B417C
:10A4A00039216944083368460B703A30311C04F096
:10A4B000E3FD271CA0373A68002A02D1201CFFF7D1
:10A4C0004EFF00230793231CA4331B78079999425E
:10A4D00014DA07993A688B009E58301CFFF759FD33
:10A4E0002E4B984207D1002E01D0301F00E0301CC7
:10A4F000211DFFF7E6FD079B0133E3E70022231C44
:10A500000792AC331B780799994217DA231C0799F5
:10A51000A8331B688A00D658301CFFF73AFD1F4B42
:10A52000984208D1002E01D0301F00E0301C211CC1
:10A53000083100F064F9079A0132E0E7002B0BD0F4
:10A5400096225200201CA118FFF7F1FE9C235B000D
:10A55000201CE118FFF7EBFE0EA90B78E068591EEE
:10A560008B410EA9026800913F68211C0197A4311C
:10A570000978DBB20291211CA83109680391211CE2
:10A58000AC31097804919668291C16AAB047E06896
:10A5900003681B6D98472FB0F0BDC046032800002C
:10A5A00070B5051CA0352B68041C0E1C002B01D1B6
:10A5B000FFF7D5FEA43422782B689200D65023787A
:10A5C0000133237070BD08B5FFF7EAFF08BD000036
:10A5D000194B10B51A1C083202601A1C70328833ED
:10A5E000041C83604260FFF796FE231CA8331868A2
:10A5F000002801D004F036FD231CA0331868002881
:10A6000001D004F02FFD9A235B00E01800F0B6F8AB
:10A6100084235B00E018FFF7E7FC201CDC30FFF729
:10A62000E3FC201CB830FFF7DFFC201C103000F0EA
:10A6300025FE201C10BDC046D82A020010B5041CFF
:10A64000FFF7C6FF201C01F01FFF201C10BD07B53F
:10A650006B46D9800633DC30191C0222FFF7DBFC85
:10A6600007BD0000354BF7B51A1C083202601A1CF2
:10A6700088338360031C70321033041C4260181C42
:10A68000009301F011FA231C00258C335D609D605E
:10A690001D731D615D611D76DD611D60201C04332D
:10A6A0001D772749B03000F0B4F8231CB83301936C
:10A6B000181C244902221323FFF7C4FC0222201C89
:10A6C000131C2149DC30FFF7BDFC204F601C391CF6
:10A6D000FF3000F09EF81E4E84235B00311CE01812
:10A6E00020220423FFF7AEFC96235B00391CE01800
:10A6F00000F087F89A235B00311CE018202200F05C
:10A700004FF8B0235B00E018211C01F032FA009BE7
:10A710001022E360B6235B00E018291CFDF770FDF2
:10A7200001980C49FFF753FC291C201CFFF78FFFF1
:10A73000E068211C01F068FA201CFEBDD82A020046
:10A74000B02A0200B52A0200BA2A0200BF2A02007B
:10A75000C42A0200C92A020010B5041CFFF714FC29
:10A76000024B201C1A7801321A7010BD01290020FA
:10A77000014B18787047C04601290020014B08336F
:10A7800003607047802B020010B5044B041C083393
:10A79000036001F079FE201C10BDC046802B020032
:10A7A00038B5041C151C0430094AFFF7D5FF094BC6
:10A7B000002108332360201CE31CA572E1720422EF
:10A7C000D97728306162FDF71BFD201C38BDC046DB
:10A7D00003280000802B020038B5041CC3720D1C36
:10A7E0000C30111C1A1C04F047FCE31C0122DA7720
:10A7F000A36A002B02D0281C211C984738BD416257
:10A80000704710B5A022041C9201FFF7A5FF201C81
:10A8100010BD10B5A022041C9201FFF765FC201C9E
:10A8200010BD000013B50123041CFFF74FFC074BBC
:10A830006946236007310023201C01220B70FFF7BB
:10A84000EAFB034B201C236016BDC046D81D020046
:10A85000081E0200F0B5002385B0041C03AE216081
:10A860000375081C0F1C33707370B37004F014FD73
:10A87000451E002D1ADB237D01930F2B16D87B5D1F
:10A880002D2B01D101350FE07A19013A1278301CD5
:10A89000327000211022737004F0F6FD019AA318A3
:10A8A0001871237D01332375023DE2E7201C05B0BA
:10A8B000F0BD04307047007D704771DF704772DF74
:10A8C000704773DF704775DF704776DF704777DF5B
:10A8D000704778DF70477ADF70477CDF70477EDF34
:10A8E00070477FDF704782DF704790DF704792DFED
:10A8F000704795DF704797DF704798DF7047A0DF9C
:10A900007047A2DF7047A3DF7047A4DF7047A6DF60
:10A910007047A9DF704760DF704761DF704762DF13
:10A92000704763DF704752DF704710DF704711DFF9
:10A93000704760300078431E9841C0B27047603065
:10A940000078431E9841C0B2704730B5031C713384
:10A95000021C18780023834213DA556F1C012C194E
:10A9600025688D420BD1E389002083420AD0237BE6
:10A97000990707D5783213780120584002E0013357
:10A98000E9E7002030BD38B5031C71331A78002385
:10A99000934219DA456F1C012C1925688D4211D19B
:10A9A000E1890022914210D0237B9C070DD5031C26
:10A9B000783301241C70808FFFF79BFF4242424195
:10A9C000D2B202E00133E3E70022101C38BD30B5FB
:10A9D000021C7132031C1078002282421BDA5D6F68
:10A9E00014012C1925688D4213D1E289002082427E
:10A9F00012D0227B110704D578331B7801205840F0
:10AA00000AE0550708D560331878431E9841C0B254
:10AA100002E00132E1E7002030BDF0B587B0041C50
:10AA20000193713006780020B0422FDA636F050180
:10AA30005D192F688F4227D1EF890020874226D0E9
:10AA4000297B0C25294222D0251C60352E78864290
:10AA50001DD00907CB0F191C4B424B41013303A9F1
:10AA60000B70019B8A60CB80231C78330122013E4E
:10AA70001A7048704F8088802E70A08FFFF73BFFC0
:10AA800043425841C0B202E00130CDE7002007B098
:10AA9000F0BD30B5031C71331C780023A34212DAD9
:10AAA000456F1A01AA1815688D420AD1D389002072
:10AAB000834209D0107B30231840431E9841C0B216
:10AAC00002E00133EAE7002030BD30B5021C7132EC
:10AAD000031C85B01078002282422BDA5D6F1401CE
:10AAE0002C1925688D4223D1E5890020854222D08A
:10AAF000227B30210A421ED0D106C90F4A42514161
:10AB000001316A46518001A9023201248A601A1C6F
:10AB100048708880783202202D190C704D80C880D2
:10AB20001470988FFFF7E7FE43425841C0B202E02D
:10AB30000132D1E7002005B030BD08B503681B6CB9
:10AB4000984708BD30B5021C7132031C85B01078DF
:10AB50000022824226DA5D6F14012C1925688D428D
:10AB60001ED1E589002085421DD0217B3022114273
:10AB700019D06A4601A95080023201248A601A1C49
:10AB800048708880783202202D190C704D80C88062
:10AB90001470988FFFF7AFFE43425841C0B202E0F5
:10ABA0000132D6E7002005B030BD08B50B1C2733B5
:10ABB00014DB0B1C1D3313DB0B1C133312DB0B1CC0
:10ABC0000F3311DB0B1C0B3310DBCB1D10DBCB1C4D
:10ABD00010DBC817401AC00F80000DE028200AE0E3
:10ABE0001E2008E0142006E0102004E00C2002E003
:10ABF000082000E00420404240B2FFF768FE4342D4
:10AC00005841C0B208BD08B51321808FFFF75DFE23
:10AC100008BD37B5041C6846FFF74FFE20690028C1
:10AC200005D00268211CD5696A460132A84737BDA4
:10AC300037B50023041C01A80193FFF774FE0198A7
:10AC400004F0AAF8094B084A03F0B8FA04F016F920
:10AC5000021C2069002803D001680D6A211CA84746
:10AC600037BDC046C046C046000000000000D03FCF
:10AC7000704710B586B0041C182268460021FDF705
:10AC8000BFFAA27A00239A4205D1231C34331B78E1
:10AC90005A42534102336A461370A0880A210001C8
:10ACA00001F0F8FC6B4618826846FFF70AFE06B012
:10ACB00010BDF0B5031C61331A7891B0051C0C1C53
:10ACC0000023934260DA14275F43696ECF19396815
:10ACD000A14209D1201CFFF7DDF90122104253D017
:10ACE0007B68002B02D14FE00133EAE72A1C3332A4
:10ACF00001921678291C321C143108A804F0BCF902
:10AD00002368201C1B69984704303618F6B21F2EA2
:10AD10003AD87868FFF73BF9011C02A8FFF79AFDC3
:10AD2000236801991B69201C0F78984708AA019B8A
:10AD30000330D0551F7802A8D31916225A70FFF796
:10AD4000B8FD023708AA011CD019022204F094F9B8
:10AD5000019B08A91F7823680437DB68201CCF19E2
:10AD60009847236801901B69201C98470199021C91
:10AD7000381C04F081F9002208A8311C131CFFF7CD
:10AD80009EFDAC63012000E0002011B0F0BDF0B5E5
:10AD9000D5B069468E230DAE5B001231041C301C09
:10ADA0000B80FFF7BAFD031E00D049E23288302A3B
:10ADB00000D135E111D8112A55D004D8012A21D06B
:10ADC000102A25D03CE2142A00D1BDE0172A00D178
:10ADD000C5E0132A00D033E299E0372A00D1E7E139
:10ADE00006D8322A00D168E1352A00D1C6E127E22F
:10ADF000502A00D1C6E0522A00D10BE1382A00D0F7
:10AE00001EE2F3E16034327A2378D318237017E21C
:10AE1000B388201CA3876030FFF781FD20690028DC
:10AE200005D003686A461B68211C3B329847E288BC
:10AE3000052A0FD92389C82109018B420AD807A9FD
:10AE40004B8000238B80C8235B000A80CB80A08FBF
:10AE5000FFF739FD231C68331B78002B00D1EFE18D
:10AE6000A08F012113E101225242A287221C6032ED
:10AE70001070061C231C61331B789E4216DA1425C1
:10AE80007543606E002745192F746F742868FFF7AB
:10AE900008F9B84208D02069B84205D003682A688A
:10AEA000211C5D693B1CA8470136E3E720690028A7
:10AEB00003D00368211C5B6898470025231C683376
:10AEC0001B789D420ADA0C206843E16E04220818C0
:10AED00008300021FDF794F90135EFE70023221C2B
:10AEE00071321278934209DA626F19015018002208
:10AEF0000273656F01336918CA81F0E7231C783348
:10AF000000221A702368201C9B69984798E1E0682A
:10AF1000002800D18EE100F0F1FD002800D089E189
:10AF2000002105AA0D230591E06D137007235370CE
:10AF30001023937011710A910B910C910790089155
:10AF40000991A08F07AB79E1E16DF2894D8AA08F5D
:10AF5000954200D0191C1A1CFFF7C5FC70E1B279AC
:10AF6000002A00D06CE1E068002804D0211C4031A8
:10AF70001C2300F0D8FD2069002800D160E103689F
:10AF80009B68F8E0F78802900397231C61331B78D5
:10AF9000029F9F4200DB53E1029F14257D43606EB8
:10AFA000039F45192B89BB420BD12069002800D192
:10AFB00046E1B17F03682A6800911D69211C15AB29
:10AFC0002CE1AB89039FBB4220D16B4655331F78E0
:10AFD00015AB1B783F021F4301233A1CDF401A4088
:10AFE0001F402A746F74002A00D01F1C2868FFF7C6
:10AFF00058F887420AD02069002800D120E1036870
:10B000002A68211C5D693B1CA84719E1029D013596
:10B010000295BAE7A08F191C1A1CFFF77AFC0FE102
:10B02000F288002A03D0221C683212783BE0B589EE
:10B03000171C02956D464635029A974220DA231C6A
:10B0400068331A780023934217DA0C205843E16ED4
:10B050000818A91E09788C4681798C450BD1291FC7
:10B0600009888C4681888C4505D1291C042208302A
:10B0700004F002F801E00133E5E701370835DBE7CA
:10B08000029DA08FEF00F719B989013189B2002222
:10B09000FFF72BFCD4E00C215943E66E71180889A8
:10B0A000002803D101339342F5DBC9E04889002829
:10B0B000F8D0221C7032137055E0F288201C7030DA
:10B0C000002A3BD103780C214B43E56E101CEB1892
:10B0D0009B680793B68911AB02960299884228DAD9
:10B0E0000021221C7132127891421CDA676F0A012A
:10B0F000BA18271C70373F780C26774356687F595B
:10B10000B7420ED11F78BC46977ABC4509D19F1E25
:10B110003F88BC461789BC4503D19F781773DF88E9
:10B12000D7810131DDE7D98807AA118001300A33C0
:10B13000D3E7A08F07A9FFF7DAFB81E00378221C91
:10B140006832013315780C225A4301E001330C3286
:10B15000AB420BDAE66EB1180E89002EF6D04E899E
:10B16000002EF3D00370A08F0831E4E72069002897
:10B1700066D00368DB68211C984761E0221C7832A6
:10B180001070F1880622FF32914202D1E768002F49
:10B1900019D1231C7133B089197800238B424FDAFF
:10B1A000656F1A01AA18D58985422CD00133F5E7BD
:10B1B000221C78321070F1880622FF3291423FD172
:10B1C000E668002E3CD007A9079301260B71DBB27D
:10B1D00033431C2293430C2633430B7007234B70DD
:10B1E00010238B70A08FFFF77AFB29E0B37BB58922
:10B1F000022B03D1A08F291CFFF77FFB231C713387
:10B200001978002313E02069002819D0317C0368E5
:10B21000126800919D696B46211C4633A8470FE0D8
:10B22000676F1A01BA18D089A842ECD001338B425B
:10B23000F6DB05E00022A08F8521131CFFF751FBF0
:10B2400055B0F0BD10B5041CFFF771FB606F00280E
:10B2500001D003F007FFE06E002801D003F002FFE9
:10B26000606E002801D003F0FDFE221C0023613235
:10B2700071341370D371237010BD000010B5054BED
:10B28000041C08330360FFF7DDFF201C00F09AFC6C
:10B29000201C10BD902B020010B5041CFFF7EEFF20
:10B2A000201C01F0F1F8201C10BD000013B512881D
:10B2B000041C6846028041806A46211C02480193B2
:10B2C000FFF723FB16BDC046FFFF0000F0B5EBB053
:10B2D000029372AB1B78071C069374AB1B78039127
:10B2E00008200021141C0593FFF71FFB0CA803780E
:10B2F00001263343002503704560FFF70CFB0EA8C1
:10B300002823038050234380C823B340C380858013
:10B31000FFF7E1FA281CFFF7DAFA02233B75062350
:10B32000BB7503983B1C333303227E751A70A84209
:10B3300003D102990B1E42D01EE0002CF9D02E1C26
:10B34000039A9642F5DA3D1C3335287822783B186B
:10B3500001321A7562780230C0B25A7528703818F6
:10B360002278A11C143003F087FE22782B78013656
:10B37000D3182B701F34E3E7709B002B1ED00025E1
:10B380001C1C2B1C02998D4219DA267822A8721CEB
:10B39000C2546178C2180233DBB25170C018A11CCC
:10B3A000321C019303F068FE01983A1C0121361803
:10B3B0003432F3B211706D181F34E3E7709B3A1CFE
:10B3C0003332381C1178143022AAFFF778FA0020A3
:10B3D000FFF77FFA0024069B9C420EDA719AA300C5
:10B3E000D058FEF7D6FDC94B984204D13B1C6133BF
:10B3F0001A7801321A700134EDE73A1C6132137881
:10B400001420033BDBB21370584303F021FE0023EA
:10B41000786668460384029307930393029B069819
:10B42000834200DBF3E10299719A8B00D458201C0F
:10B43000FEF7ADFD011C15A8FFF70CFA15A8FFF7E4
:10B4400038FA051C15A8FFF736FA022808D16A78E1
:10B45000297812020BAB0A431A8001229A7013E07A
:10B460002AAE291C1022301C03F006FE6A7B2B7BBF
:10B4700012021A4369460BAB1A80301C00232E318E
:10B4800073733373FFF74DFA201CFEF782FDA02380
:10B490009B01984212D1201CFEF779FD9C4903F0D4
:10B4A000E9FE002800D1AEE1201CFEF770FD9949AD
:10B4B00003F0E0FE002800D1A5E15CE2201CFEF7CD
:10B4C00068FD924B984200D030E1002C00D0043C43
:10B4D000251D281CFEF75BFD8F4903F0CBFE0028DD
:10B4E00011D12AAD11232B702368201CDB689847EB
:10B4F0002368061C1B69201C9847311C021C281C51
:10B50000FFF7EBF97FE1281CFEF741FD834903F0CB
:10B51000B1FE002807D12368201CDB68984700880B
:10B52000FFF7D7F96FE1281CFEF731FD7C4903F0E6
:10B53000A1FE002800D166E1201CFEF7ABFD2368C8
:10B54000051C1B69201C98476B46588403981423DC
:10B550005843796E079A0B181BAE00215A6004906D
:10B560001C60197459741C22301CFCF749FE01221E
:10B570002B1C9343337030231D4208D0101C102124
:10B5800009AB08430222187058709A707361002248
:10B590000AAB1A809A703222154210D01978F868D6
:10B5A0000F229143002804D0012001430A402021AA
:10B5B00003E0012001430A4010210A431A700C23C2
:10B5C0001D4213D0F9680F220AAB002906D0597822
:10B5D0000120914301430A40202105E059780120D0
:10B5E000914301430A4010210A435A700AADAB78D7
:10B5F0000622934302221343AB702368201C9B69ED
:10B600009847A97801231A1C994382430B1C1343C2
:10B61000029AAB70013201920198069988420ADAC7
:10B62000019871998300CD58281CFEF7B2FCA42321
:10B630009B01984221D010AD00211422281CFCF758
:10B64000DFFD0BAB10936A460AAB6B60538C201C7A
:10B650002B81236800269B6898470499A881786EFF
:10B660002A1C43180833301C1BA92E61FFF749F927
:10B670006A46538CB3422ED143E0002D00D0043DE6
:10B680002E1D301CFEF783FC264903F0F3FD002835
:10B6900010D12B68281C9B6898471C902B68281C8D
:10B6A000DB6898472B681BAE3081DB68281C984705
:10B6B00070810CE0301CFEF76AFC1B4903F0DAFDD8
:10B6C000002804D12B68281C9B6898471E90019B7A
:10B6D00001330193A0E76A46223213889E4208DABA
:10B6E0002368311C5B69201C98472AABF054013653
:10B6F000F1E7786E04994318188900212AABFFF707
:10B70000D5FD039B0133DBB203937CE003280000EB
:10B71000B02A0200BF2A0200B52A0200BA2A02009B
:10B72000C42A0200F82B0200FD2B0200201CFEF7A9
:10B7300030FCA4239B01984265D1002C00D0043C2E
:10B74000251D281CFEF723FC9F4903F093FD0028CC
:10B7500059D0281CFEF71BFC9C4903F08BFD0028E8
:10B7600051D0281CFEF713FC994903F083FD0028F3
:10B7700049D0281CFEF70BFC964903F07BFD0028FE
:10B7800041D02368201CDB6898470AAB061C188050
:10B79000002114221BA8FCF733FD10AD00232B80E1
:10B7A0000223AB702368201CDB689847331A5E1EA7
:10B7B000B341AE7801229643F8681E43AE700F2362
:10B7C0002978002800D1DDE099430A431340202264
:10B7D00013432B700BAB1B936A4610AB1C93138D5A
:10B7E0001BAD2B812368201CDB6898470026A881AD
:10B7F000291C301C08AA2E61FFF785F86846038DC6
:10B80000B34200D0C3E0029A0132029206E60599E3
:10B81000002903D00B1C023BDBB205930024059BDF
:10B820009C4219DA739AA300D558281CFEF7B1FB85
:10B83000A0239B01984202D13B1C683307E0281CDF
:10B84000FEF7A7FB644B984204D13B1C71331A7876
:10B8500001321A700134E2E73B1C68331B780C207C
:10B86000584303F0F5FB3B1CF8667133187800254C
:10B87000000103F0EDFB01957867029503950599AA
:10B880008D426BDA7398AB00C458201CFEF77FFB27
:10B89000011C2AA8FEF7DEFF2AA8FFF70AF8061CFB
:10B8A0002AA8FFF708F8022808D172783178120226
:10B8B00015AB0A431A8001229A7014E0311C102241
:10B8C0001BA803F0D9FB727B337B12021A43792148
:10B8D00015AB1A80694400230B701EAA1BA82339DC
:10B8E0001370FFF71EF8201CFEF753FBA0239B01EB
:10B8F000984214D1029B0C205843F96E0B181C601F
:10B90000159A00215A60FB6E042218180830FCF7C3
:10B9100077FC029B03940133DBB202931CE0201CF2
:10B92000FEF737FB2C4B984216D10198796F030133
:10B93000CA18002C00D0043C03981460506015997C
:10B9400091607A6FD11800220A73786FC318DA8178
:10B95000019B0133DBB20193013590E7F8680028C1
:10B9600003D000F0CBF8002825D13B68381C9B6938
:10B9700098476BB0F0BD01200BA908AAFEF7BFFFE6
:10B98000079440E799430A431340102220E70AAA8C
:10B9900013889E4208DA2368311C1B69201C9847D3
:10B9A0002AABF0540136F2E76946088C2AAB002135
:10B9B000FFF77CFC27E7391CF868403100221C2384
:10B9C00000F0C0F8D1E7C046F82B0200022C0200BC
:10B9D000072C0200FD2B020003280000F0B5002216
:10B9E00089B00123041C0D1C00920193231C6133B8
:10B9F0001B78009A9A4254DA009A14275743636ED0
:10BA0000DF193A68AA4248D1A36B9D4204D123684A
:10BA1000201C5B6A291C98472B68281C1B699847C7
:10BA20002B686A46D081DB68281C3E8998476A46A5
:10BA3000031C0021301C0E3204AEFFF737FC301C13
:10BA400000211022FCF7DCFB3B8933800E236B4482
:10BA5000B3603B7C002B0ED0221C60321378002B8D
:10BA600008D0013B13700123B370A08F311CFEF787
:10BA70004EFF00E001937B7C002B0ED0221C603235
:10BA80001378002B08D0013B13700223B370A08FF2
:10BA9000311CFEF73CFF00E00193009A0132009256
:10BAA000A4E7019809B0F0BD10B5041C00F09CF8A3
:10BAB0000F4B002108332360231C33331970597056
:10BAC00001235B42A387201C231C60334030A16309
:10BAD0001C221970597061661972E16619745974E3
:10BAE00061671976E065FCF78BFB201C10BDC04632
:10BAF000902B020029DF704728DF70470368186821
:10BB00000130431E9841C0B2704780235B0510B5D9
:10BB10001969006800F070FD041C201CFFF7ECFFA1
:10BB20001128FAD010BD70B51D1C041C0E1CFFF7A7
:10BB3000ECFFAD082068311C2A1CFFF7DBFF112841
:10BB4000F8D070BD10B5006800229A4203D2845824
:10BB50008C500432F9E710BD08B50430062203F01A
:10BB60008BFA08BD08B5043000210622FCF748FB1B
:10BB700008BD10B5041C0160FFF7F4FF201C10BDC8
:10BB8000704770477047002070477047704700202B
:10BB90007047002070470020704700207047002049
:10BBA0007047002070470020704700207047002039
:10BBB0007047002070470020704700207047704792
:10BBC00070477047014B083303607047102C020028
:10BBD00010B5044B041C0833036000F055FC201C16
:10BBE00010BDC046102C0200064B01220833036032
:10BBF000642383800023C38003818272C360036156
:10BC00007047C046102C020001617047F7B58A18D2
:10BC1000061C0D1C01920C1C019B671B9C4207D04B
:10BC2000336821781B68301C984701340028F3D111
:10BC3000381CFEBD10B500214022041CFCF7E0FAC0
:10BC40000023201C2364636410BD026C10B53F23E5
:10BC5000541C2340446CA34201D08154036410BDA2
:10BC60000023036443647047436C026C934206D024
:10BC7000C25C3F2101330B404364101C01E00120F2
:10BC800040427047026C436CD01A00D54030704778
:10BC9000436C026C934201D0C05C01E00120404241
:10BCA0007047026C3F2301321A40436CD01A434262
:10BCB0005841C0B27047000003210A4802680A4395
:10BCC0000260094802680A4302600849084A094BB1
:10BCD0009B1A03DD043BC858D050FBDC00F012F87F
:10BCE000FCF71EFA240500405405004030310200E4
:10BCF00000200020A0240020FEE7FEE7FEE7FEE78C
:10BD0000FEE7FEE72C4A10B51378012B12D12B4B1E
:10BD10001B6818070ED12A4BF0211B68E024181C61
:10BD20000840234204D1274B1B680B4202D127E075
:10BD30003028F8D01378012B0DD120490968080765
:10BD400009D11F490868F0210840402803D11D4847
:10BD5000006808421CD01378012B2BD1174B1B68AD
:10BD6000190727D1164BF0221B681340A02B04D1D2
:10BD7000144B1B6813421DD110E0D02B1AD1F7E7EA
:10BD80001149124B19608021114B09021960D1E74A
:10BD9000C1218020C900C0054350DCE70D4B1A6863
:10BDA000012A04D00C4A1A601A68012AFCD10B4BF4
:10BDB000C0221A6010BDC046E00F00F0E40F00F092
:10BDC000E80F00F0EC0F00F0DFFF07C004050040B3
:10BDD000186C004000EC06407593000014EC06401F
:10BDE0000120704708B503681322DB69984708BD36
:10BDF000704700000269054BD150131CFC33196ACF
:10BE00000029FAD0002201201A6270471C050000A8
:10BE100010B5031C5C33197801221F231940131C31
:10BE20008B40191C0E4B0424D9670369C221890079
:10BE30005C505A60DA60A0220021D2009950094972
:10BE4000012252425A50084914305A50A121C900C7
:10BE50005A50A221C9005A50FFF702FF10BDC04638
:10BE600004E100E00C0500001405000008B51430E2
:10BE7000FFF708FF08BD08B51430FFF709FF08BD3C
:10BE800008B51430FFF7F0FE08BD000070B5031CC4
:10BE90005E331C780269614BD450031C5D331C78FF
:10BEA0005F4BD450031C61331C785E4B012C0CD1CA
:10BEB000051C5F352E78A225ED005651051C603516
:10BEC0002E78A125ED00565100E00024D450962391
:10BED000DB00994238D996231B01994237D9962322
:10BEE0005B01994236D996239B01994234D9E123CB
:10BEF0009B01994232D99623DB01994231D9E12342
:10BF0000DB0199422FD996231B0299422DD9E123B7
:10BF10001B0299422BD996235B02994229D9E1232E
:10BF20005B02994227D9E1239B02994225D93E4BD6
:10BF3000994224D9E123DB02994223D9E1231B034F
:10BF4000994221D8394B21E09E23DB021EE09D233C
:10BF50001B031BE0364B19E0364B17E0EC239B0329
:10BF600014E0354B12E0354B10E0354B0EE0354B0D
:10BF70000CE0354B0AE0354B08E0354B06E08023FA
:10BF8000DB0403E0334B01E080235B0532490024EE
:10BF90005350A0210423C9005350111CFC31CC6024
:10BFA0000C62C1240121A40011605C309160135126
:10BFB00000781F22C3B21A409140C024274A64006F
:10BFC00040B21151141C002813DA0F221A40083A0B
:10BFD000234892080325920012182B40AB40D069E9
:10BFE000FF259D40A843C0259D402B1C0343D361E2
:10BFF00011E01A4A8008800080180326C0229200AF
:10C000003340B3408558FF269E40B543C0269E402E
:10C01000331C2B438350216070BDC0460C050000CB
:10C02000140500006C05000090D0030000D0BE0E87
:10C0300000B013000050270000A04E0000F0750073
:10C0400000509D0000F0EB0000903A0100E0D701A5
:10C0500000B0AF0300705F072405000000E100E0BE
:10C0600000ED00E0F7B5009308AB1B7800250193C5
:10C07000FA239B0083600F4B041C08334560036068
:10C0800014300F1C161CFFF7D5FD231C00995C33E0
:10C0900027611E70084B8A00D158221C5D32117036
:10C0A0000199201C8A00D258231C5E33DD701A705F
:10C0B000FEBDC046F82C0200782C0200036910B5C2
:10C0C0001A1CFC32D268041C002A0AD0A322D20017
:10C0D00099581430C9B2FFF7B8FD23690022FC3328
:10C0E000DA6010BD08B50248FFF7E8FF08BDC0469A
:10C0F0000429002007B512230093034803490222B4
:10C100001123FFF7AFFF07BD0429002000200040E6
:10C1100010B5041C006802F0A5FF201C10BD10B56E
:10C12000041C0068002801D002F09CFF002323605B
:10C13000A360636010BD38B5041C0D1C006801319C
:10C1400003F058F8002801D021C4012038BD03684D
:10C1500010B5041C002B02D043688B4209D2201C6E
:10C16000FFF7E9FF002805D0A368002B01D1226862
:10C170001370012010BD70B50E1C111C041C151C81
:10C18000FFF7E5FF002803D1201CFFF7C8FF04E0FC
:10C19000A5602068311C03F077F8201C70BD38B50D
:10C1A0000023041C0D1C036043608360994207D088
:10C1B000081C03F071F8291C021C201CFFF7DBFF90
:10C1C000201C38BD38B5051C00680C1C00280CD09C
:10C1D0006A688B689A4206D3096803F055F8A2682A
:10C1E0000023AA600AE002F03DFF236862682B602A
:10C1F000A3686A60AB60002323606360A36038BDFE
:10C2000010B50B1C041E8C4208D00968002903D00D
:10C210009A68FFF7B0FF01E0FFF781FF201C10BD17
:10C2200010B50023041C036043608360FFF7E8FF40
:10C23000201C10BD10B5041E8C4201D0FFF7C2FFB8
:10C24000201C10BD38B5041C0D1E08D0081C03F0BE
:10C2500023F8291C021C201CFFF78DFF01E0FFF7CB
:10C260005EFF201C38BD10B500238AB0041C03609B
:10C2700043608360081C01A900F0ECF8201C01A9B0
:10C28000FFF7E0FF201C0AB010BD10B500238AB0F4
:10C29000041C036043608360081C01A900F061F87E
:10C2A000201C01A9FFF7CEFF201C0AB010BD38B535
:10C2B0000D1C002A14D0002912D081688B4202D3B1
:10C2C00000232B700CE0541EC91A8C4200D90C1CA0
:10C2D0000168221CC918281C02F0E5FF00232B5519
:10C2E00038BD00000000000008B50B4B0B490C4A9C
:10C2F0001B688A581806190A1043064B044A00F0B6
:10C30000A3FA4904C00B084308BDC046C046C04656
:10C31000E803000000000000682900200010014030
:10C3200004050000C046C04638B5041E09D0FFF71A
:10C33000DBFF051C00F014F8FFF7D6FF401BA042FE
:10C34000F8D338BD044B00229A60044B1A680132BE
:10C35000D2B21A607047C046FC1001406829002024
:10C360007047F0B58FB00D1C029235D0131C023B04
:10C37000222B33D80A2A33D1002831DA012346424E
:10C38000039305AC0194002E12D0301C029900F0EA
:10C3900077F9301C0F1C029900F02EF9631C061C63
:10C3A000092F01DC303700E0573727701C1CEAE703
:10C3B000019A9442E9D0039A2B1C002A02D02D2224
:10C3C0006B1C2A70019A944204D9013C22781A709D
:10C3D0000133F7E700221A70281C05E0002003E073
:10C3E0000022061C0392CCE70FB0F0BDF0B58DB073
:10C3F000061C0D1C019228D0131C023B222B26D8B0
:10C4000003AC0094002E12D0301C019900F038F9D2
:10C41000301C0F1C019900F0EFF8631C061C092F5B
:10C4200001DC303700E0573727701C1CEAE7009A20
:10C430009442E9D02B1C009A944204D9013C227802
:10C440001A700133F7E700221A70281C00E0002060
:10C450000DB0F0BD08B5FFF7C9FF08BD704700007B
:10C4600008B500F015F8FFF7F9FF0120FFF75CFFB2
:10C47000FDF716F8FDF7B4F8024B002BFAD000E0F8
:10C4800000BFF7E70000000008B502F0EBFD08BDB3
:10C49000124BC4229200985811490140C02000025A
:10C4A000014399508022C021920249005A501A60DB
:10C4B000A32180230122DB05C9005A509A60A121E3
:10C4C000084B0020C90058500221C1208840195053
:10C4D000D120884019501A607047C04600E100E042
:10C4E000FF00FFFF0010014000B51E2816D80C4BBE
:10C4F0008000C258032911D8C132A023FF32081C82
:10C50000DB05920000F06EF802080406002104E04A
:10C510000C2102E0042100E00321995000BDC04637
:10C52000782C02001E280ED8074B8000C25801202C
:10C53000A0239040DB05021C002901D1034901E042
:10C54000A121C9005A507047782C02000C05000048
:10C55000031C00201E2B0AD8A222A021D200C9054C
:10C560008858034A9B009B58D840012318407047C5
:10C57000782C020008B5031C081C191C02F046FDAB
:10C5800008BD00000B1C011C021C30B51943022021
:10C59000002900D130BD802109068B4216D00D49FB
:10C5A00004205C180C498C42F4D90C4D5C198C4267
:10C5B000F0D90B4C590049080320A142EAD9074C95
:10C5C0000020A142E6D150425041E3E7002AE1D0E9
:10C5D000EFE7C0460000F0FFFFFFDF7F0000F07FC5
:10C5E000FFFF0F0002B4714649084900095C490089
:10C5F0008E4402BC7047C046002934D0012300227B
:10C6000010B488422CD301242407A14204D28142D1
:10C6100002D209011B01F8E7E400A14204D28142E1
:10C6200002D249005B00F8E7884201D3401A1A435E
:10C630004C08A04202D3001B5C0822438C08A04295
:10C6400002D3001B9C082243CC08A04202D3001B4B
:10C65000DC082243002803D01B0901D00909E3E7C5
:10C66000101C10BC7047002801D00020C04307B444
:10C67000024802A14018029003BDC046D900000044
:10C680000029F0D003B5FFF7B9FF0EBC4243891A69
:10C690001847C046002941D010B4041C4C40A446A1
:10C6A00001230022002900D54942002800D540423C
:10C6B00088422CD301242407A14204D2814202D211
:10C6C00009011B01F8E7E400A14204D2814202D231
:10C6D00049005B00F8E7884201D3401A1A434C082E
:10C6E000A04202D3001B5C0822438C08A04202D364
:10C6F000001B9C082243CC08A04202D3001BDC088C
:10C700002243002803D01B0901D00909E3E7101CCC
:10C710006446002C00D5404210BC7047002806D06B
:10C7200003DB0020C043400801E08020000607B47E
:10C73000024802A14018029003BDC0461900000043
:10C740000029EBD003B5FFF7A7FF0EBC4243891ABF
:10C750001847C0467047C0468446101C62468C4647
:10C76000191C634600E0C0461FB501F0A9FC002873
:10C7700001D40021C8421FBD10B501F0D9FB4042D1
:10C78000013010BD10B501F09BFC002801DB00203A
:10C7900010BD012010BDC04610B501F091FC00286D
:10C7A00001DD002010BD012010BDC04610B501F014
:10C7B00009FC002801DC002010BD012010BDC0468E
:10C7C00010B501F0FFFB002801DA002010BD0120A8
:10C7D00010BDC0468446081C6146FFE71FB500F047
:10C7E00005FA002801D40021C8421FBD10B500F091
:10C7F0008BF94042013010BD10B500F0F7F9002868
:10C8000001DB002010BD012010BDC04610B500F0B6
:10C81000EDF9002801DD002010BD012010BDC0464B
:10C8200010B500F09BF9002801DC002010BD0120AC
:10C8300010BDC04610B500F091F9002801DA0020C3
:10C8400010BD012010BDC0469C460304F0B51B0C72
:10C8500017043F0C150C1E1C041C000C7E436B437C
:10C8600047434543FB18300C1818874202D98023F0
:10C870005B02ED18030CED1863465C434A43360433
:10C88000360CA118000480194919F0BD9E2110B57D
:10C89000C905041CFFF7CEFF002803D1201C00F0BF
:10C8A0008BFC10BD9E21C905201C00F015FB00F07B
:10C8B00083FC80231B06C018F3E7C046F0B55F4633
:10C8C00056464D464446F0B446024500C00F85B07A
:10C8D0000F1C760A2D0E804641D0FF2D26D08024D5
:10C8E000240400212643F6007F3D89468B46F90F3C
:10C8F0007C027800640A000E00918A463CD0FF2832
:10C9000034D080231B041C430023E4007F380193B0
:10C91000009F4346019A7B4049469C4611430F299C
:10C9200000D971E0764F89007F58BF46002E3ED176
:10C930000822022391469B46D9E75A46341CC24638
:10C9400001920199022937D0032900D1CFE00129B2
:10C9500000D0ABE053460B400022002632E0002E10
:10C9600019D10421012289469346C0E7221C531E97
:10C970009A4102320192CBE701270197002CC7D0E0
:10C98000201C02F007FB431F9C4076235B420021E2
:10C99000181A0191BCE7301C02F0FCFA7625431FFF
:10C9A0009E406D4200232D1A99469B469FE70C231B
:10C9B000032199468B469AE7D446012367463B40BC
:10C9C000FF2200267602D205700ADB0710431843C7
:10C9D00005B03CBC90469946A246AB46F0BD8026C9
:10C9E0000023F603FF22EDE700220026EAE780207D
:10C9F000C00306423BD0044239D1061C26437602CE
:10CA0000760A009BFF22DDE7281A03907601640175
:10CA1000A64239D3361B1A2201230120311C5B00A8
:10CA20007600002901DBB44201D8361B0343013AEA
:10CA3000002AF3DC741EA641341C1C43039A7F3287
:10CA4000002A27DD630704D00F232340042B00D0E6
:10CA50000434270103D52B4B039A1C408032FE2A55
:10CA60000BDD012361460B40FF220026AAE70643A7
:10CA70007602760A4346FF22A4E7A4010123674613
:10CA8000660AD2B23B409DE7039F1B22013F0397FA
:10CA90000023C2E77E23039F5B42DB1B1B2B07DDCA
:10CAA000012361460B40002200268BE7D446C5E7F0
:10CAB000221CDA40039B9E339C40231C5C1EA34136
:10CAC00013435A0704D00F221A40042A00D004331B
:10CAD0005F0105D5012361460B400122002671E765
:10CAE0009E01624601231340760A00226AE78026EF
:10CAF000F60326437602760A5346FF2262E7C046D3
:10CB0000282D0200FFFFFFF74A02430270B55C0ABE
:10CB1000550A43004A001B0EC60F120EC90FFF2B09
:10CB200005D0FF2A08D0012093420BD070BD012010
:10CB3000002CFBD1FF2AF6D10120002DF6D10120D7
:10CB40009342F3D1AC42F1D18E4205D0002BEDD10E
:10CB5000201C441EA041E9E70020E7E74A02430207
:10CB6000F0B55C0A550A43004A001B0EC60F120EB0
:10CB7000C90FFF2B31D0FF2A34D0002B16D16042D1
:10CB800060418446002A14D0002820D18E4217D15B
:10CB9000934215DC04DBAC4212D80020AC4212D226
:10CBA000704270414042012318430CE0002AEDD14D
:10CBB00094466F426F416046002805D1002FE5D0B2
:10CBC000704201231843F0BD0020002FFBD14842E2
:10CBD0004841404201231843F5E7002CCBD0022006
:10CBE0004042F0E7002DC8D0F9E7C0464A024302B0
:10CBF000F0B55C0A550A43004A001B0EC60F120E20
:10CC0000C90FFF2B27D0FF2A29D0002B10D0002AD4
:10CC100015D194466F426F416046002815D0002020
:10CC2000002F04D148424841404201231843F0BD3F
:10CC3000604260418446002AECD00028F2D18E4246
:10CC400011D0704201231843F1E7002FF7D0704252
:10CC500001231843EBE70220002CE8D1D3E70220A0
:10CC6000002DE4D1D1E79342EBDC04DBAC42E8D801
:10CC70000020AC42DBD27042704140420123184395
:10CC8000D5E7C046F0B55F4656464D464446F0B43B
:10CC90004402460083B00F1C640A360EC50F002EF6
:10CCA00041D0FF2E22D080231B0400201C43E4002F
:10CCB0007F3E82468046391C4B007F02C90F7F0AA7
:10CCC0001B0E8B463BD0FF2B34D08022120417431F
:10CCD000FF007F3B00215A466A40019252460A43B8
:10CCE0000F2A63D87A48920082589746002C3FD189
:10CCF0000822022392469846DDE701954046022825
:10CD00002AD1019A01251540FF2300246402DB0586
:10CD1000600AED071843284303B03CBC904699468F
:10CD2000A246AB46F0BD002C27D10420012282464A
:10CD30009046C0E7391C4A1E91410231CBE70121E0
:10CD4000002FC8D0381C02F025F9431F9F407623DE
:10CD50005B421B1A0021BEE7032800D1AEE0012888
:10CD60004FD1019842461040C5B200230024CDE7C0
:10CD70000C2303209A4680469DE7201C02F00AF906
:10CD80007626431F9C4076420023361A9A469846E0
:10CD900091E780240025E403FF23B7E75B463C1CB2
:10CDA00001938846AAE73C1C8846A7E7250C240483
:10CDB0003A0C240C3F04F6183F0C211C231C794329
:10CDC00053436F435543FB180A0C9B18B1469F42CF
:10CDD00002D980225202AD1809041A04090C521813
:10CDE00094011B0C611E8C41920EED181443AD0191
:10CDF0002C43230105D501226308012014408144FE
:10CE00001C434B467F33002B2DDD600704D00F22DF
:10CE10002240042A00D00434220103D52D4B1C40AB
:10CE20004B468033FE2B17DD019B01251D4000245E
:10CE3000FF236BE78020C003044208D0074206D1DD
:10CE4000041C3C436402640A5D46FF235EE704431E
:10CE50006402640AFF2359E70198A4010125640ACA
:10CE6000DBB2054052E77E235B424A469B1A1B2BEE
:10CE700005DD019B01251D400024002346E7221CFF
:10CE8000DA404B469E339C40231C5C1EA341134357
:10CE9000580704D00F221A40042A00D004335A0144
:10CEA00005D5019B01251D40002401232EE7019893
:10CEB0009C010125640A0540002327E78027FF0322
:10CEC000019B3C43640201251D40640AFF231DE7CA
:10CED000682D0200FFFFFFF7F8B5C20F43024400C0
:10CEE0004D024800240E161C9B09000EC90FAD0907
:10CEF000FF2800D17EE0012779408A4258D0221ACB
:10CF0000002A00DC89E000281BD1002D00D075E04C
:10CF1000580704D00F221A40042A00D004335901C4
:10CF200038D50134FF2C00D183E09B0101225B0A3C
:10CF3000E0B232405B02C405580AD20720431043D6
:10CF4000F8BDFF2CE4D08021C9040D431B2A00DD6D
:10CF50002DE1291C2020D140821A95406A1E95415E
:10CF60000D435B1B5801D3D59B019F09381C02F070
:10CF700011F8421F9740944260DC141B1F231B1BB7
:10CF80003A1C9F40611C3B1CCA405F1EBB411343BF
:10CF90000024BDE70122DB08E0B23240FF2C04D1BF
:10CFA000002B7ED08021C9030B435B025B0AC1E7E3
:10CFB000211A002946DD002826D0FF2CA8D0802089
:10CFC000C00405431B2900DDEFE0281C2027C840D2
:10CFD000791A8D40691E8D4105435B19590197D51A
:10CFE0000134FF2C5CD0734901221A400B405B08CE
:10CFF00013438DE7002D00D07FE77CE7013A002A3C
:10D00000AFD0FF2CA2D183E7002D00D180E70139FA
:10D010000029E2D0FF2CD5D17AE7002A1ED1621C6C
:10D02000D2B2012A4EDD5F1B7A0126D5EF1A0E1C03
:10D030009CE701223240FF2000237BE75D4BA41ACE
:10D040003B4065E7002946D1611CC8B201282ADDB2
:10D05000FF2925D0EB185B080C1C59E7002C13D0D6
:10D06000FF2818D08024E404524223431B2A4DDDBC
:10D070000123EB1A041C0E1C74E7002F00D075E787
:10D0800000220020002390E7002B3BD0D243002A4F
:10D09000EFD0FF28EAD12B1CFF240E1C38E700221A
:10D0A000FF20002346E7002C5AD1002B77D0002D1B
:10D0B00000D12DE75B19580100D429E73D4A01242E
:10D0C000134025E7002C15D1002B2FD1002DD7D0F0
:10D0D0002B1C0E1C1CE7002C21D1002B53D0C94364
:10D0E000002904D0FF284BD01B294FDD01235B19F9
:10D0F000041C73E7002B22D1002DD0D02B1C0E1C5A
:10D10000FF2405E72B1C041C0E1C01E71C1C202619
:10D11000D440B21A93405A1E93412343A9E7FF28F3
:10D120002ED08024E40449422343DDE7002D00D1C2
:10D13000EEE65A1B500134D5EB1A0E1CE8E6FF242C
:10D14000002D00D1E4E68022DB08D203134204D094
:10D15000ED08154201D12B1C0E1CDB00FF24D7E685
:10D16000002B0DD0FF24002D00D1D1E68022DB085A
:10D17000D2031342F1D0ED081542EED12B1CECE79F
:10D180002B1CFF24C4E62B1C041CC1E61C1C2027FE
:10D19000CC40791A8B40591E8B412343A7E72B1CA7
:10D1A000B6E6131E00D0B3E66AE7012515E70125B0
:10D1B000D7E6C046FFFFFFFB4302590A4300C20FF8
:10D1C0001B0E00207E2B0DDD9D2B0CDC802000042F
:10D1D0000143952B0ADC9620C31AD9404842002A05
:10D1E00000D1081C7047034BD018FBE7963B9940D1
:10D1F000F4E7C046FFFFFF7F70B5041E3CD0C60FAA
:10D2000000D04442201C01F0C5FE9E23251C1B1AA1
:10D21000962B0CDC083884406402640ADBB2321CB2
:10D220006402DB05600AD2071843104370BD992BD6
:10D230000ADD0522121A211CD1400A1C011C1B31D7
:10D240008D40691E8D411543052801DD421F954023
:10D25000164C2C406A0704D00F221540042D00D034
:10D26000043461010CD59F23181AFF281AD0A40199
:10D27000640AC3B2321CD3E7002200230024CFE7A4
:10D28000E408FF2B04D06402640ADBB2321CC7E757
:10D29000002C04D08020C00304436402640A321CC2
:10D2A000FF23BDE7321CFF230024B9E7FFFFFFFB8C
:10D2B000F8B55F46564644464D46F0B40C034D0063
:10D2C000CE0F610A440F2143C40018038046580062
:10D2D000400D8246D80F84464046400A530F034310
:10D2E000D0006D0D371C83465246664500D19DE047
:10D2F000AF1A002F00DC03E1002A38D1184300D018
:10D30000E4E0630709D00F232340042B05D0231D3D
:10D31000A342A441644209191C1C080200D478E00D
:10D32000CE4B6A1C9A4200D105E1CD4BE40819406E
:10D3300048075205490204430B0B520D371C0020CD
:10D3400000211B03201C1C0B0B0D1B05C54D23438B
:10D35000520552081D4015436D006D08FF07291C3A
:10D3600039433CBC90469946A246AB46F8BDBB4803
:10D370008542C6D0802000040343382F00DDECE056
:10D380001F2F00DD20E12020C01B1A1C8146824097
:10D390005846F8400243944658464A469040421E3A
:10D3A0009041FB40624602431F1CA21A9442A441D2
:10D3B0006442C91B091B141C0B02A2D549024F0A67
:10D3C000002F00D1C4E0381C01F0E4FD021C083A33
:10D3D0001F2A00DDB7E02821091A201C9740C84009
:10D3E00007439440954200DDA9E0551B691C1F29A5
:10D3F00000DDD8E01F22551B3B1C221CAB40CA405D
:10D40000AC40651EAC411343CF401C43391C002582
:10D4100077E74807E4086A05C908520D371C04433A
:10D420008E4B9D4248D009030B0B88E7AA1A9446FD
:10D43000002A00DC98E05046002853D087488542F7
:10D4400000D15EE78020000403436246382A00DDF5
:10D45000FDE01F2A00DD4BE120226046101A1A1C55
:10D4600082408246914658466246D0404A46024330
:10D470009046584652469040421E904142460243D2
:10D480006046C3401219A242A441644259180919C6
:10D49000141C080200D434E7704B01359D4200D1C2
:10D4A00024E16F4B60081940012323401C1C0443F6
:10D4B000CB071C43490824E70B1C234300D1C7E1D9
:10D4C00080231B030B431B031B0B38E7013F002F7B
:10D4D00064D15846221A9442A4416442C91A091BD5
:10D4E000141C69E75846184300D10AE7012252424A
:10D4F00094446046002800D0C5E058460219C2E7AF
:10D50000002F72D1681C4005400D012800DCDEE0D0
:10D510005A46A21A9442BF41C81A7F42C71B38021A
:10D5200000D488E05A46141BA3459241591A52422E
:10D530008F1A664644E7371C00230024FFE648495B
:10D54000AD1A3940DDE6271C28388740002449E71A
:10D55000201C01F01FFD203038E75A461A43531EA5
:10D560009A41D2B2002720E7002A00D0DDE0681CF3
:10D570004205520D012A00DC8EE0384DA84200D150
:10D58000B3E05D462A19A242A44164425918091920
:10D59000CC07520814434908051CB2E62F488542BF
:10D5A00000D0EAE6ADE62B1C1F3B3A1CDA40131C08
:10D5B00020296DD03F22551BAF403C43601E844163
:10D5C0001C43002100259CE6381C20381A1CC24050
:10D5D000101C202F5ED04022D71BBB405A461A4356
:10D5E000531E9A4102430027DFE6002D3CD01B4D1D
:10D5F000AA4500D194E080252D047F422943382F8D
:10D6000000DDADE01F2F00DD2CE12025ED1B081C07
:10D61000261CA840FE40AC400643651EAC41344386
:10D62000F9405D462C1BA34592415B1A5242991A60
:10D6300055466646C0E6131C3B43141C002B00D025
:10D64000BEE600270022002500210024E8E65A4615
:10D650001A43531E9A41D2B2002313E7FF0700007A
:10D66000FFFF7FFFFFFF0F800D1C254358D0FF43B6
:10D67000002F51D1041BA3459241591A5242891AD5
:10D680005546664698E69648854200D0DDE638E67F
:10D69000002792E70023A1E7081C2043002D00D0BB
:10D6A000C0E0002800D1FBE05846184300D128E62E
:10D6B00058460219A242A441644259180919141C7F
:10D6C0000A0200D41DE6874B0125194019E6081C03
:10D6D0002043002D39D100286DD15946194300D17E
:10D6E000BDE0191C5C4666460BE6051C2A1CABE730
:10D6F000604620381A1CC24060469146202800D15E
:10D70000ABE04022121A93405A461A43531E9A41E4
:10D710004B461A430023B5E6714DAA4500D06EE78B
:10D72000191C5C4655466646EBE5002D1ED10D1CC6
:10D73000254373D0D543002D6DD15C445C459241A7
:10D740005918524289185546A3E6002849D159462E
:10D75000194300D196E0191C5C466646604DD0E541
:10D760000C43611E8C41E4B200215AE75C4DAA458E
:10D7700054D05542802210040143382D00DD85E04D
:10D780001F2D00DD95E02022501B0A1C844682409C
:10D79000201CE8400243904662469440601E84414B
:10D7A00042461443E9405C445C459241CB185242E6
:10D7B000991855466DE65846184300D1A1E55846DC
:10D7C000271ABC429241C81A5242801A02026AD5F4
:10D7D0005846041BA3459241591A5242891A66467B
:10D7E0008FE55846184336D04807E40804438020A4
:10D7F000C9080003014208D0DD08054205D1594699
:10D80000CA085C071443291C6646630FC900194304
:10D81000E400334D75E5324A9245AED1191C5C46A1
:10D8200055466EE5002837D05846184313D080255A
:10D830004807E408C9082D0304432942E5D0D80865
:10D840002842E2D15D46EA085C071443011CDCE78C
:10D850000023002473E5224D53E5002354E70027FD
:10D860000022F1E63D1C203D0A1CEA40151C202F39
:10D8700031D04026F71BB9400C43611E8C412C432C
:10D880000021CEE6164A0027151CDDE60C43611E7A
:10D890008C41E4B2002186E7191C5C46104D30E54E
:10D8A000191C5C462DE5031C3B43D8D0011C3C1CD5
:10D8B00027E52020404240190A1CC2409046202DF6
:10D8C0000BD04020451BA9400C43611E8C414546AE
:10D8D0002C43002167E70021CEE70021F4E7C04692
:10D8E000FF070000FFFF7FFFF0B5564644465F4646
:10D8F0004D46F0B41F1C0B031B0B98464B0087B022
:10D90000041C81465B0DC80F161C9A460090002B24
:10D9100051D06A4B9A4531D08022414652030A4386
:10D92000630FD2001A43664B90460025E2009146F1
:10D930009A44002402953B031B0B9B46FD0F7B0082
:10D94000311C5B0D019560D05C4A934254D080211C
:10D95000584649030143720FC9001143584A8B4688
:10D960009B18F1000020009A04436A4003920F2C98
:10D9700000D9ADE0534EA4003459A74640460443B5
:10D980006ED1002102250824884689460295D2E7F7
:10D99000009C0298C34649460194022864D003289B
:10D9A00000D1ABE2012800D038E2019A0024024005
:10D9B0000025A14660E0434623434AD04046002864
:10D9C00000D1C0E101F0E6FA031E272B00DDB3E130
:10D9D00028210D1A211C083B4246E9409A400D1CA3
:10D9E0001543221C9A40A8469146374B00251B1A26
:10D9F0009A46002402959EE75A4616430320002EBD
:10DA0000B1D1B34600210220ADE75A4632431BD0C4
:10DA10005B46002B00D18AE1584601F0BBFA27286B
:10DA200000DD7DE12822171A011C321C08395B46F3
:10DA3000FA408B40171C1F43331C8B40BB46191CFC
:10DA4000214B1B1A00208EE70027BB460021012036
:10DA500089E70020012504248046814602956AE773
:10DA600003250C24029566E7019C0394039D012283
:10DA70002A400024114DA146002000212403260B3A
:10DA80000C0D2405114B34432D0523402B435B0023
:10DA90005B08D207191C4846114307B03CBC9046AE
:10DAA0009946A246AB46F0BD00228024240391464D
:10DAB000024DE1E700240025A146DDE7FF07000055
:10DAC00001FCFFFFA82D02000DFCFFFFFFFF0F80F0
:10DAD0005546ED1A0495D84500D953E100D14EE1E1
