:020000023000CC
:10A000000080002015D703005DD703005FD7030051
:10A010000000000000000000000000000000000040
:10A02000000000000000000000000000DDC603008A
:10A03000000000000000000063D7030065D70300A4
:10A0400067D7030067D7030067D7030067D703000C
:10A0500067D703000000000067D7030067D703003D
:10A0600067D7030067D7030067D7030067D70300EC
:10A0700067D7030067D7030067D7030067D70300DC
:10A0800067D703009DA6030067D7030067D70300C7
:10A090005DA7030067D70300C5D6030067D7030099
:10A0A00067D7030067D7030000000000000000002E
:10A0B00000000000000000000000000000000000A0
:10A0C000144B002B00D1124B9D46402292029A1A4B
:10A0D000924600218B460F461148124A121A00F090
:10A0E0007DF80D4B002B00D098470C4B002B00D077
:10A0F00098470020002104000D000B4800F016F8DE
:10A1000000F046F82000290002F088FB00F016F865
:10A110000000080000800020000000000000000097
:10A12000882600202C2F002069A1030008B5011CFF
:10A130000020021C031C00F059F808BD084B10B5A4
:10A14000041C002B02D0002100F0A8F8054B186871
:10A15000836A002B00D09847201C00F00FF9C046FE
:10A160009DA203008CD8030038B5074B074C1D1C7B
:10A17000E41AA410002C04D0013CA300EB5898472B
:10A18000F8E703F07BFB38BD482600204826002076
:10A1900070B50E4B0E4D0024ED1AAD101E1CAC42D6
:10A1A00004D0A300F35898470134F8E703F060FBAC
:10A1B000084B094D0024ED1AAD101E1CAC4204D012
:10A1C000A300F35898470134F8E770BD48260020F3
:10A1D000482600204826002048260020031C82181C
:10A1E000934202D019700133FAE77047F7B5284D52
:10A1F000061C2C680191171C0093002C01D1254CE2
:10A200002C6061681F2912DD234B002B02D1012035
:10A2100040423CE08C2000E000BF041EF7D02A68DA
:10A2200000230260021C8832436028601360002E05
:10A2300025D0251C8835286800280ED1164B002B08
:10A24000E5D08420400000E000BF0028DFD0031CE0
:10A250000022FC335A609A602860626801219300F2
:10A26000C31880C39140FC300A1C4168114341600F
:10A270000099D967022E02D183681A43826063680D
:10A2800001995A1C02339B00626000201951FEBDE7
:10A29000142700208826002000000000F0B587B0B9
:10A2A00005900491334F3C68002C61D0231C883307
:10A2B0001B680193636801985D1E01339B00AE002B
:10A2C000E31886190293002D3BDB0499002907D07F
:10A2D000019A002A2FD0331C80331B688B422AD16D
:10A2E00062680298013A0368954201D1656002E014
:10A2F000029900220A60002B1DD062680198039227
:10A30000002806D0011CFC3101224868AA401042F6
:10A3100001D1984708E08968114203D10598316856
:10A32000984701E030689847039962689142B9D133
:10A330003B68A342B6D10298013D0438043E029026
:10A34000C1E70D4B002B13D06168236800290CD1A5
:10A35000002B0AD0019A3B60002A02D0101C00E0BA
:10A3600000BF201C00E000BF9DE7271C1C1C9BE7D2
:10A3700007B0F0BD1427002000000000FEE7C04633
:10A38000BFF34F8F024A034BDA60BFF34F8FFEE7F4
:10A390000400FA0500ED00E036DF704737DF704754
:10A3A000032310B51340041C0720002B10D10948CB
:10A3B0000260481CC00080B2121807480260074AB9
:10A3C000181C1370064A1370064A1480064A11803E
:10A3D00010BDC046182700201C270020232700207E
:10A3E000222700202027002024270020F0B5464BFC
:10A3F00085B001921A8800900C1C09208A4200D274
:10A400007FE06E4600230F363370404B04275A68B6
:10A41000D205D20D20D0103AD3B259B200290DDAAC
:10A420000F221A40083A3A49920892005218032122
:10A4300052680B408B40DA40131C08E08908C03199
:10A44000344B8900CB5803210A408A40D340DBB209
:10A450009B09DFB2012F0CD0301CFFF79DFF0228B3
:10A4600001D172B605E0002803D000210A1CFFF7D5
:10A4700087FF294B294A1B781088DBB29C46284B62
:10A4800000221978C9B2814201D24A1CD2B2254DAC
:10A49000624509D01D781978EDB2C9B20022814217
:10A4A00001D24A1CD2B21A70012F0BD062B630789A
:10A4B000FFF774FF0223021C9A4303D000210A1CF9
:10A4C000FFF75EFF174B04209D421AD0164FEE0097
:10A4D0003968019A8B1900991A6000290FD0002C55
:10A4E0000DD0094A114B1088221C454318684019A9
:10A4F00003F0ADF93B6800209E19B48001E0002014
:10A50000988005B0F0BDC0462027002000ED00E097
:10A5100018ED00E000E100E02227002024270020C1
:10A5200023270020FFFF0000182700201C27002001
:10A5300010B5104B10491A780978914219D00F497B
:10A540001A7818780C88C0B2D2B20021844201D99E
:10A55000411CC9B219700A49D3000968CB180949CE
:10A560000888094942430868998880181B689847F9
:10A57000DFE710BD2227002023270020242700200A
:10A5800018270020202700201C27002010B5437822
:10A59000827801339A1A541EA24152421340027823
:10A5A000934206D00B604378182253434068C0188A
:10A5B00000E0002010BD0000164B02205A68D205B2
:10A5C000D20D26D0103AD3B259B200290DDA0F229B
:10A5D0001A40083A1049C24082405218032152687A
:10A5E0000B408B40DA40131C08E08908C0310B4B4C
:10A5F0008900CB5803210A408A40D340DBB29B0933
:10A60000DBB20020012B04D0033B5842434102201F
:10A61000C01A704700ED00E018ED00E000E100E036
:10A620001A4B80229202DA67D221194B8022520201
:10A6300089005A50C22189005A5001212F225960A5
:10A64000101C0138C046C046C046C046C046C04681
:10A65000C046C046C046C046C046C046F1D199601B
:10A660000C4900230B60101C0138C046C046C04690
:10A67000C046C046C046C046C046C046C046C046AA
:10A68000C046F1D1044A13707047C04604E100E0AF
:10A69000001001402827002050270020F8B5244A48
:10A6A000002353649364D364136553609360214A19
:10A6B0001468621C3AD0204A20491E1C8D58204A3A
:10A6C0001268AD1A2D022D0A242254431D4B1A681C
:10A6D000121953689D4215D3ED1AF6181A4B146AD5
:10A6E0001B689769D169002B08D0381C984700284F
:10A6F00006D000210A1CFFF743FE01E0081CB84702
:10A70000631CE1D1114B1978114B1A788A4205D19B
:10A710000132D2B2022A00D100221A701A780D4BEF
:10A720009200D65080220C4B52035A60F8BDC046AE
:10A73000FC100140402700200405000000100140EB
:10A7400028270020302700202C2700203C2700202D
:10A750003D27002048270020FCE100E0F0B5B64985
:10A760008BB00868B54B0390B5481A7800789042D2
:10A7700011D00132D2B2022A00D100221A701A7806
:10A78000B04B9200D258039C012513191B021B0ADF
:10A790000B60019501E000220192AB4B09681B6838
:10A7A00006910893A94B08991B780593A84B059E21
:10A7B0001B6802960993A74B1C68A74B1B7807934D
:10A7C000029B013BDBB20293FF2B5BD0029F0998F7
:10A7D000FD0045192B7868789842F1D0182058432D
:10A7E0006E6801333018AE78DBB2F61A771EBE41C0
:10A7F000764233400678022E02D0032EEBD138E0A9
:10A8000047682420784320180490007DBC46002827
:10A81000E1D0081C0091471C27D02427604504D0B4
:10A820004743E7190090386AF5E7009E86420AD14F
:10A8300079436118096A4E1C05D1884F0126BE6014
:10A840000796002606962427784320184668006A53
:10A85000B446009E7E43A6193062461C05D078435C
:10A86000201847683E1C66444660049E00203075F0
:10A87000B1E74F1CAFD02420414300206118087578
:10A88000096AF6E76C4B06986F4E1860079C724B8E
:10A89000019D31601C70002D09D1089E891B4B1E43
:10A8A00099410123C9B25B42039102932DE0694BA8
:10A8B00000201B68019301235B4202934D1C20D0B2
:10A8C00024234B43019FFB185C68A24205D2A21AC5
:10A8D000012031605A60039017E0121B0019002418
:10A8E0005C601C751C691F6A002C08D0039DDC602D
:10A8F0002D18029C2D022D0A9D601C620291391CAC
:10A90000DCE7514B0126196003964F4B1B680693F9
:10A910004F4B1B6808934F4B1F684F4BBC461B782F
:10A920000493454B1B680793069B059A013AD2B2E4
:10A930000592FF2A00D195E00598089AC1005118A8
:10A940000298013007D0029C242262436244156AB7
:10A95000201C029526E00A7848789042E5D0182419
:10A9600054434E6801328878D2B234190A7090424A
:10A9700001D100220A70227860681D1C012A59D179
:10A98000242242436244167D002E53D1A76897606B
:10A99000E568D560276917616469D461049C002C5F
:10A9A00000D09660079F9568D468EE1B2C4F360246
:10A9B000360ABE4201D8341908E0079E751B2D02E5
:10A9C0002D0AAC4201D9641B00E00024546000242D
:10A9D0009460D46001241475644214622424251CFC
:10A9E000454365445F1C24D05C4364446A686668E0
:10A9F000B24202D901931C1C09E0B21A62602B62B8
:10AA000017E0366AD21B771C0BD00194341C242625
:10AA1000664366447768BA42F3D8BF1A7760261C4B
:10AA2000019C6A602422624362442E6210621D1CF3
:10AA300000E0051C2B1C83E7282700203C27002072
:10AA40003D270020482700204027002034270020F1
:10AA50003827002030270020442700200010014024
:10AA6000FEFF7F002F4A069913608B4202D1039AA2
:10AA7000002A52D05C1C4ED024214B432A4A2B483A
:10AA800012682B49D3185C682A4B09681A582A4D5A
:10AA9000571A3F023F0A2E7803370197002E20D124
:10AAA0008020D1264002B6009851C126B6009851A8
:10AAB000C02722488026B6027F00C65106600126C4
:10AAC0001E602F200138C046C046C046C046C04662
:10AAD000C046C046C046C046C046C046C046F1D18A
:10AAE0002E70019FA74200D2271C7F183F02A82189
:10AAF0003F0AC9000D485F501B589B1A1B021B0AD6
:10AB0000BA1A12020333120A934206D980220C4B5E
:10AB100092025A6001E0FFF783FD0A4B00221A708F
:10AB20000BB0F0BD402700203027002004050000B6
:10AB300028270020001001405027002000E100E0FD
:10AB4000FCE100E044270020F7B5032701900D1C2D
:10AB5000161C1C1C1F400720002F52D1002B50D068
:10AB6000FFF75EFD274B089A1A60274B1D70274B95
:10AB70001C60231CAF4205DA00221A701A750137D7
:10AB80002433F7E724235D43214B03201821187059
:10AB90007143204B64191C60231C183300220138B8
:10ABA000636022706270A6705B1808349042F5D121
:10ABB000194B012252421A60184B80221870184B10
:10ABC000C0211870174B520349005A50C521890003
:10ABD0005C58FF25AC43C0252C435C501A60019C97
:10ABE000114AA121C9005450C42189005D580F4C5D
:10ABF0002C40C0252D022C435C500D4BD2580D4BE0
:10AC00001A60FEBD2C2700203E27002030270020A0
:10AC10003427002038270020402700203C27002030
:10AC20003D27002000E100E000100140FF00FFFF91
:10AC30000405000028270020F0B5114B1C68002CEB
:10AC40001AD0002A1AD0002818D00E4B1F780023E3
:10AC5000BB420FDA251C2434261C243E3678002EF5
:10AC600006D101242C706970AA610360301C06E0D3
:10AC70000133EDE7042002E0082000E00720F0BDEA
:10AC8000302700203E270020F0B5204B85B00192F0
:10AC90001A68051C0C1C002A34D01D4B07201B7899
:10ACA0009D4230D204292ED924236B43D3181A781D
:10ACB0000820012A27D15B78012B01D0002700E072
:10ACC0000F1CFFF779FC134BC0001E6803A9361850
:10ACD000301CFFF75BFC031C0420002B13D0012267
:10ACE0001A700D490D4A5D608A58DC609A60019ABD
:10ACF0001F615A61039B80227370094B52035A6093
:10AD0000002000E0082005B0F0BDC046302700203C
:10AD10003E270020382700200010014004050000D5
:10AD2000FCE100E037B5154B041C1A68002A22D05C
:10AD3000134B1978072388421ED2242343439A5C7D
:10AD40000823012A18D1FFF737FC0E4BC0001D68FD
:10AD500001A92D18281CFFF719FC042300280BD08B
:10AD600002230370019B446080226B70064B5203E8
:10AD70005A60002300E00823181C3EBD3027002045
:10AD80003E27002038270020FCE100E010B5041C1D
:10AD9000082904D00020011C021CFFF7F1FA6068AA
:10ADA0002368984710BD000007B5044A0090019140
:10ADB00068460821FFF71AFB0EBDC0468DAD0300A3
:10ADC00048DF704711DF704713DF704708B5FFF7A2
:10ADD000F7FF002803D000210A1CFFF7D1FAFFF784
:10ADE000A7FB034B1B78023B022BF0D808BDC046E3
:10ADF0005127002008B5074B1878012802D10229F5
:10AE000000D11970002A04D00021101C0A1CFFF781
:10AE1000B7FA08BD5127002010B50C4C1C21201C8E
:10AE200001F025FC002803D000210A1CFFF7A8FA36
:10AE3000201C07491C22002301F008FC002803D035
:10AE400000210A1CFFF79CFA10BDC04670270020A5
:10AE50005427002007B50368013301D1002017E013
:10AE600001A800F051F9019B1A78012AF6D15988FE
:10AE70000022914206D0C02189018868996800F0BB
:10AE800067F9021C019B5888801A42425041C0B2A7
:10AE90000EBD000084B0F0B5051C85B0C4B22D0C09
:10AEA0000A9003A801950F1C0B91161C0C920D9390
:10AEB0001D1C00F029F9002C08D1364B0199012204
:10AEC0005980FF219D601A7019713EE0012C13D149
:10AED000304B019A0E995A80F21952199A60A522A4
:10AEE0001A70FF221A71DF601E615D6199612A4B41
:10AEF0001C70FFF791FF48E0032C0DD1039A254BFE
:10AF0000117819705188926859809A60AA221A7132
:10AF1000DF601E615D6117E0022C19D1039A1D4BA1
:10AF20001178A52905D100225A809A60FF221A7053
:10AF300004E019705188926859809A60FF221A7152
:10AF40000022DA601A615A610122134B1A70D0E7AD
:10AF5000052C09D101F03CF8002803D000210A1C7F
:10AF6000FFF70EFA03220EE0042C09D1094B002250
:10AF70005A809A600399FF221A700A791A71B8E709
:10AF8000062C02D10422044B1A7005B0F0BC08BC98
:10AF900004B0184754270020512700201FB5002176
:10AFA00001A80C22FFF71AF9074B019301F016FBD9
:10AFB000002806D10549FF239B0201A84B6001F040
:10AFC00031FB05B000BDC046F5AD03007027002081
:10AFD00010B500F029FA002805D100F02BFF041C61
:10AFE000FFF7F4FE201C10BD10B5FFF7EBFE0028A4
:10AFF00003D000210A1CFFF7C3F90D4B1968002389
:10B0000001229A40114201D00A48C2670133202B25
:10B01000F6D1C024A401A068FFF7D6FE002803D013
:10B0200000210A1CFFF7ACF9A06800F073F810BD0E
:10B0300000E100E004E100E007B501A800F064F8D9
:10B04000019B1A78A52A05D01879AA38434258419D
:10B05000C0B200E001200EBD10B500F011FC0028C8
:10B060000BD0642001F0D0F900F07EFB002809D05D
:10B0700000210A1CFFF784F904E000F0DEFB021E49
:10B08000EFD111E000F0FCFB002803D000210A1CE6
:10B09000FFF776F900F0B2FB0022041E944203D0C1
:10B0A000111CFFF76DF9221C101C10BD10B588B0E3
:10B0B00003AC201C00211422FFF790F80223237018
:10B0C00000230093043403980ECCFFF7E3FEFFF750
:10B0D0007DFE002008B010BD13B5041C01A800F0CF
:10B0E00013F8019B1A7822705A8862809A68A260CD
:10B0F0001A792271DA68E2601A6922615A6962611A
:10B100009B69A36113BD0000014B03607047C046FB
:10B1100000FC0300F0B5031C186880F30888586829
:10B12000FF2464B2EFF30585002D01D1A646004748
:10B13000251C061C21273FBAF0B400240025002658
:10B140000027F0B4F92040B20047C046F0BDC04629
:10B1500010B5031C002A01D0108800E009485918D6
:10B160008B420ED042BA1C7892B26240D0B2000933
:10B1700042401003424092B2D0B2400150400133ED
:10B18000EEE710BDFFFF000018DF704770470000BA
:10B1900070B5141C1D1C022902D004290AD019E024
:10B1A000104B1B78052B15D10F4B1B68002B11D0B2
:10B1B00004200CE00B4E3378022B0BD10B4B5B6859
:10B1C0009847094B03201B683070002B02D0211CCC
:10B1D0002A1C9847002C04D00021201C0A1CFFF7D1
:10B1E000CFF870BD8027002078270020A8270020F6
:10B1F00000B5084B89B001221A7003AB05221A7002
:10B20000079A039800920499059A069BFFF742FE5D
:10B2100009B000BD8C27002000B589B003A8032326
:10B220000370074B1B884380064B079859689A6840
:10B23000DB6800900398FFF72DFE002009B000BDE9
:10B240007E2700209827002000B589B003AB01229B
:10B250001A70084A12885A80C0239B019B68039881
:10B260000093054B59689A68DB68FFF713FE0020CE
:10B2700009B000BD7E2700209827002010B588B0B7
:10B2800003AC201C00211422FEF7A8FF0423237026
:10B2900000230093043403980ECCFFF7FBFD08B0A5
:10B2A00010BD000008B50B480B4B022218600B4B79
:10B2B000E8211A70C0239B019B688902C91A4908BA
:10B2C00001F0D5F9002803D000210A1CFFF758F837
:10B2D00008BDC04690270020F827002080270020C6
:10B2E00008B50848084B02221860084B1A70084B32
:10B2F000196801F0BCF9002803D000210A1CFFF7EF
:10B300003FF808BD84270020F82700208027002070
:10B310000028002070B5164C164E88B0201CF1682D
:10B3200001F0A5F9002803D000210A1CFFF728F836
:10B33000114B201C5968F268002301F087F9051EA3
:10B3400012D103AC291C1422201CFEF747FF0B4B23
:10B3500022691B8825706380F3680398E36000927C
:10B360006168A268FFF796FD281C08B070BDC04652
:10B370008427002098270020902700207E27002087
:10B3800038B50E4B08201D78002D16D10C4C2068C6
:10B39000FFF7C8FC002803D0291C2A1CFEF7F0FF89
:10B3A000F021206889030022FFF76EFC041E03D001
:10B3B00000210A1CFEF7E4FF201C38BD8C2700206A
:10B3C000F4270020F0B585B0051C1E1C0190032356
:10B3D000970868460C1C009302910397FFF7D4FE70
:10B3E00000281ED080235B019C4212D801236846AE
:10B3F0000093019502940397FFF7C6FE002810D131
:10B40000032368460093019502940397FFF7BCFE5F
:10B4100007E0A81BA11B321C331CFFF7D3FF002839
:10B42000E4D005B0F0BD0000F0B585B000210C22DD
:10B4300001A8FEF7D3FE1F4B002701931E4B1F4DA3
:10B440001F701F4B01A8291C1F8001F0EBF81D4E37
:10B45000041EBC4201D037702AE0C0239B019A68C9
:10B46000194B6A60191C81CD81C1E8218902891AB2
:10B470004908164D8A185A60281C211C144AFFF7E7
:10B48000DBFB002803D0211C221CFEF779FFF021F2
:10B49000286889030022FFF7F7FB002803D000216A
:10B4A0000A1CFEF76DFF0B4B002018600123337060
:10B4B00005B0F0BD91B103007C2700208427002057
:10B4C0007E2700208027002090270020F4270020DE
:10B4D000F1B10300FC270020014B18607047C04603
:10B4E0007827002070B5284B4268191C31CA31C139
:10B4F00012680A601A78560702D50624900741D1CF
:10B500005E680320062406423CD19968014239D185
:10B51000DD68054236D18B195B191C4DB8202B60B4
:10B520000C24C00181422DD8C020E821800189026D
:10B53000D6070AD58268891A8B4223D8144B154A3C
:10B540001A60154A5A60154A0EE08068091A4908BF
:10B550008B4217D80E4B1249196012495960900757
:10B5600001D5114A00E0114A9A60114B08241B785A
:10B57000012B07D1FFF704FF041E03D1044B2868F9
:10B580001B689847201C70BD9827002000280020C9
:10B59000A8270020E1B203007DB2030049B20300F6
:10B5A000A5B203008DB1030019B2030015B3030067
:10B5B00080270020F8B5051E2BD0AA68102092071E
:10B5C00028D1154B08201B78052B23D1134C6B6811
:10B5D0002268134F9E00B3183A68934204D901239E
:10B5E0005B4223600C2015E0FFF7CAFE002811D152
:10B5F0000C4BA9681868321C236801F027F8002852
:10B6000008D12368F6183B6826609E4202D00920C4
:10B6100000E00E20F8BDC04680270020FC27002057
:10B6200000280020F827002070B50A4B08201C686D
:10B63000002C0ED1084D2B78042B0AD1074E084858
:10B64000317800F04FF9002802D105232B7000E07B
:10B65000347070BDFC270020802700207C2700204C
:10B66000B4270020F8B5144B061C1A78032A02D020
:10B67000042A02D01DE004221A70104B08201B6817
:10B68000002B17D1FFF77CFE071E13D173680C4CFB
:10B690009D00237809205A19402A0BD809482A1CF2
:10B6A000C018B16802F0D3F82378381CED18257063
:10B6B00000E00820F8BDC04680270020FC270020BD
:10B6C0007C270020B427002038B50E4C08202378B2
:10B6D000052B16D10C4D0D4B2A681B680820934290
:10B6E0000FD106232370FFF74BFE002809D1084B2A
:10B6F00029681B68586800F03FF9002801D107232A
:10B70000237038BD8027002000280020FC2700205F
:10B71000F827002008B5094B08201B78072B0CD10F
:10B72000074B1868FFF7FEFA002803D000210A1C17
:10B73000FEF726FE034B9B68984708BD8027002034
:10B74000F4270020A827002000B589B003AB06220B
:10B750001A70079A039800920499059A069BFFF7BE
:10B7600099FB09B000BD0000F0B58DB005A8FFF74A
:10B77000B3FC089C002C3CD0802252010B9DA318E6
:10B78000AB422AD91C4BEF18C0239B019B687F0852
:10B79000A34209D380237A005B01D11850193B1CC6
:10B7A000A21AFFF70FFE23E0802252010126BB18E8
:10B7B00001A80196029303930496FFF7E5FC002885
:10B7C00016D180235B0101A801960293039304968E
:10B7D000FFF7DAFC00280BD1DCE70123019380237B
:10B7E0005B01A40801A8029503930494FFF7CCFC25
:10B7F000041C201C0DB0F0BD00F0FFFF00B58DB0A3
:10B8000005A8FFF769FC0998002814D0089B002BB5
:10B8100007D1C0239B019A68E8239B029B1A5B080F
:10B8200000E00B9A80089B180390002201A8019267
:10B830000293FFF7A9FC0DB000BD00B58DB005A8BF
:10B84000FFF74AFC0998002817D0089B002B07D166
:10B85000C0239B019A68E8239B029B1A5B0800E0C7
:10B860000B9A9B18032280080192E822920204900E
:10B8700001A802920393FFF787FC0DB000BD000002
:10B8800030B58DB005A8FFF727FC0898002824D014
:10B89000802252010B9C8318A34211D9C0239B0123
:10B8A0009B68834218D30E4D63195B085A008025AC
:10B8B00014196D015119821A201CFFF783FD0CE049
:10B8C00003230193800880235B01049001A8029365
:10B8D0000394FFF759FC00E00E200DB030BDC046C8
:10B8E00000F0FFFF38B5041C0B2901D8092037E010
:10B8F000038904335B00C3180233C21A5218194873
:10B90000D2B20270012AF1D961188B42EED8191C0B
:10B91000154801F09CFF154A1388111C144A9342E4
:10B9200003D025880B209D421AD14B88934203D027
:10B9300062880B209A4213D1218900238B420CD2BA
:10B940005A00A21852890B48824208D0C0208001B8
:10B95000808901339042F1D101E00B2000E000200A
:10B9600038BDC0460E28002004280020801000109A
:10B97000FFFF0000FEFF000008B50022FFF7E8FB14
:10B98000054B5A781B7812021343984201D00B20C2
:10B9900000E0002008BDC0460428002042788378DB
:10B9A00012021B041A4303781A43C378101C1B06A7
:10B9B0001843704770DF704771DF704773DF70475F
:10B9C00074DF704776DF70477ADF70477CDF70473F
:10B9D0007FDF704782DF7047A7DF7047A8DF7047BF
:10B9E000A9DF7047AADF704767DF704700B50C28F2
:10B9F00013D801F0B9FE0712121212120912141212
:10BA0000120D0B0001200BE0032009E0042007E0E9
:10BA10000439481E8141481D02E0062000E0022052
:10BA200000BD08B500210A1CFEF7AAFC08BD08B538
:10BA300000210A1CFEF7A4FC08BD10B5041C081C5C
:10BA40000321FFF7D3FF0321021C201C01F068FC37
:10BA5000002803D000210A1CFEF792FC10BD000054
:10BA6000F0B5114B8FB09B7901AE02ACB3700F4BA8
:10BA7000071C0021201C302200253380FEF7AEFB7E
:10BA800002232370201C0123291CA570E770238149
:10BA9000E66001F059F9A84203D0291C2A1CFEF7E0
:10BAA0006FFC0FB0F0BDC046242800203015000008
:10BAB00038B50C1C151C03281DD004282AD10029D8
:10BAC00008D0154B1888154B984223D01321FFF747
:10BAD00079FF19E0101C00F02DFC002803D0211C78
:10BAE000221CFEF74DFC0E4B1B68AB4212D10D48D9
:10BAF0000321012206E0081C0121FFF777FF021C49
:10BB00000848012101F00CFC002803D000210A1C88
:10BB1000FEF736FC38BDC04640260020FFFF00007F
:10BB20001428002024280020F0B52C4B8BB01D7861
:10BB3000002D50D12A4C291C201C1822FEF74EFB48
:10BB4000284B1E78002E2BD0291C102202A8FEF7AD
:10BB500045FB254802A91022244F01F069FE061E6C
:10BB600008D10520FFF77CFF012222706760267252
:10BB700026821DE01C4B06AE009301AB012206930A
:10BB8000042000AB0893019732713273FFF768FF0E
:10BB90000223237228232570E6602382658208E051
:10BBA0000620FFF75DFF2823267066602672238239
:10BBB0006682201CFFF702FF002803D000210A1C28
:10BBC000FEF7DEFB0A4B8021A022D2058903D1506B
:10BBD000024A012313700BB0F0BDC04610280020AC
:10BBE000A02800200F280020612800205A280020CB
:10BBF0000C05000070B5041CAEB001F097F9814847
:10BC0000211C01F0C1FB2388142B00D1B2E02DD8F8
:10BC1000102B3AD008D8022B00D0F1E07A4B00214B
:10BC20001888FFF7E1FEB3E0112B40D0132B00D0B2
:10BC3000E6E0764C02AE211C06A8072201F007FEC2
:10BC4000E11D301C102201F002FE0EAD211C183146
:10BC5000281C1C2201F0FBFD6B4B852118886C4AC7
:10BC600008AB0C960B95FFF7B3FE91E0512B6DD00E
:10BC700005D8182B00D18EE0192B4AD0C0E0522BEA
:10BC800000D188E0552B35D0BAE0624AA02380214C
:10BC9000DB05C90399508021A122D2008903995064
:10BCA000A288594B1A805C4B00221A70A8E08023AE
:10BCB00008AA1380594B322119608020A123A021AA
:10BCC000C003DB00C905504CC85020880EA90123D1
:10BCD000FFF788FE002803D000210A1CFEF750FB66
:10BCE0004F4B1B78002B01D1FFF71EFF01235B4256
:10BCF000238085E0A479002C00D081E0424B132101
:10BD00001888FFF75FFE002800D179E0211C221C73
:10BD100071E0A379002B73D13F4A13703F4B196830
:10BD20000139196000290ED10EAC201C1422FEF737
:10BD300055FA226905232370009204340E980ECC24
:10BD4000FFF7A8F85CE0FFF7EFFE59E0A379002BBE
:10BD500056D0A27A043A022A52D80EA9022B00D059
:10BD600001230B70C1235B008B80274B1888FFF7E2
:10BD700035FE0DE0254AE189538D994201D000211D
:10BD800001E0111C1831A08807320023FFF722FEC2
:10BD9000002835D02DE01C4B224D1C88AC422DD004
:10BDA000214B201C1B78002B1CD018490822343151
:10BDB0000123FFF715FE021E1AD1111C201C0223BD
:10BDC000FFF70EFE021E13D1201C0C212A1CFFF7C8
:10BDD00003FE164B984213D0082811D0144B9842FA
:10BDE00004D10DE0191C1A1CFFF7FAFD021E07D042
:10BDF000101C00210A1CFEF7C3FA01E00822F7E735
:10BE00002EB070BD24280020402600205A28002093
:10BE1000542800200C050000102800204426002093
:10BE2000B8280020FFFF00000F280020023000008B
:10BE300004300000584A002330B51370574A58495F
:10BE40001370A023DB0503225A50EB2191405A5076
:10BE5000A1228021D200890399508021C90389B091
:10BE60009950504801F01AFC002800D092E04E484A
:10BE7000FFF732FB00F022FA051C002D00D089E00C
:10BE80004A4800F03BFC01AC002803D1484B01229A
:10BE90001A7015E0201CFFF78FFD002803D0291C25
:10BEA0002A1CFEF76DFA637800200133211C6370B1
:10BEB000FFF780FD002803D000210A1CFEF760FA7E
:10BEC0003C4D6A461123281C137001F0C9FC291C43
:10BED00082B26846FFF77AFD002803D000210A1CD1
:10BEE000FEF74EFA201C00210822FEF777F90C23FA
:10BEF000238018236380C82300255B00201CA580B5
:10BF0000E380FFF761FDA84203D0291C2A1CFEF73D
:10BF100037FA0021201C0C22FEF760F9062323804B
:10BF2000254B26486360264B211CA36001F062F874
:10BF3000002803D000210A1CFEF722FA201C002151
:10BF40001C22FEF74BF91F4B002563608023DB01A9
:10BF5000A360032323731C4B201C0195E5812574EA
:10BF60006561A36100F0A2FFA84203D0291C2A1C2E
:10BF7000FEF706FA154BE02219780A400C210A4315
:10BF800020218A431A7007225A7010229A70FFF7F4
:10BF9000CBFD002009B030BDB828002020280020AB
:10BFA00054070000F5BB0300B1BA03005A28002073
:10BFB0000F28002090D8030049C003002428002047
:10BFC00023BA0300CD0C00002FBA03005428002030
:10BFD00010B5194B01221A70184B1888184B98424B
:10BFE00009D01321FFF7EEFC00281AD000210A1C0B
:10BFF000FEF7C6F915E0134B1A781C1C002A10D066
:10C00000FFF7DEFC002803D000210A1CFEF7B8F978
:10C010008021A123A022DB008903D205D150002377
:10C02000237000F07BFF002803D000210A1CFEF7DC
:10C03000A7F9002010BDC046B828002040260020E7
:10C04000FFFF000010280020F0B5051C087889B01B
:10C050000C1C092800D91EE101F090FB2C003300D4
:10C0600046000A001300230004010C014A001201DB
:10C07000FFF72AFB0421FFF7B9FC0421021C281C4E
:10C080002FE0FFF7A5FF002803D000210A1CFEF7D0
:10C0900077F9FFF73FFB002800D1FCE0FFF754FBE6
:10C0A000F9E0FFF795FF0028F8D000210A1CFEF701
:10C0B00067F9F3E7794B01221A708B681A78784B8D
:10C0C00014E0764B02261E708B681B78012B00D083
:10C0D000E1E0FFF7A9FA311CFFF788FC021C281CDD
:10C0E000311C01F01DF9D0E06C4B03221A70D2E034
:10C0F0006A4B1E78022E2DD0032E51D0012E00D077
:10C10000C9E004AF00211022381CFEF767F8644B29
:10C110000C221B7801A800213B70FEF75FF8032278
:10C120000192029723790C2BD9D1A468201CFFF728
:10C1300035FC7860201DFFF731FCB860201C08300A
:10C14000FFF72CFCF86001A8FFF7CCF9002800D11C
:10C15000A1E0C0E70B7903221A400DD00420801A19
:10C160000022A768591C00260132C9B2FE5482423F
:10C1700001D20B1CF5E72171A168012304930691FC
:10C18000237904A89B080593FFF76CFA002800D1D7
:10C1900081E00221FFF72AFC0221021C281CA0E7F3
:10C1A0000879304203D0281C311C321C99E73D4EDF
:10C1B0000190311C00F096F8011E0FD1A168019A80
:10C1C000306801F044FB019800F0EEF8011E05D143
:10C1D00001A9301C00F0F6F8011E01D0281C3EE039
:10C1E000019A0423049393080593336804A80693E3
:10C1F000FFF7E0F9071E08D12B4B22791F68D219EF
:10C200001A603268294B1A6045E009281DD1264B77
:10C2100021791A6889181960254B1B78002B3AD0B0
:10C22000244B1A881C1C013A92B21A80002A32D17F
:10C23000281C01F03DF8002803D000210A1CFEF75D
:10C240009FF81D4B1B88238025E0306800F072F8B2
:10C25000011E02D0281CFFF7F0FB281C391CFFF739
:10C26000ECFB18E0124B01221A708B88124A1380E3
:10C27000104A03E00E4A002313700F4A13800AE0AD
:10C28000094B281C196800F0D9FF002803D00021B1
:10C290000A1CFEF775F809B0F0BDC0462028002042
:10C2A000592800201C2800209C2800201428002049
:10C2B000982800201828002096280020064B0020EF
:10C2C0001870064A064B1A6008225A609860D860B7
:10C2D0001861586198617047F8290020BC28002037
:10C2E000DC29002030B500291FD0114B00245D68E7
:10C2F0000C600422A54219D00C22202816D8DA6836
:10C3000024200132DA601A69013D50435D601D68E6
:10C310002818086098690121914001439961013210
:10C3200007210A401A61221C00E00E22101C30BDB9
:10C33000DC290020F7B51B4B061C9C680420002C50
:10C340002FD05A690721141B0C401868211C242582
:10C350004D434519AE4206D1986901228A404240B8
:10C360009A61002005E00131072529409142EED174
:10C3700010209A699E685F6801920097321C05E060
:10C38000002A0CD04D1C07242C40013A009FF519BF
:10C390000127A7403C1C019FAD1A2742F0D09A60AC
:10C3A0005D60FEBDDC290020054B072219690139BB
:10C3B00011401A6824234B43D31818620020704799
:10C3C000DC29002030B5002819D0002917D00D4BEA
:10C3D0000422DC68002C13D09A68013C01329A6078
:10C3E0005A69DC60242454431D6801322C1904600E
:10C3F000246A0C6007210A405A61002200E00E22E4
:10C40000101C30BDDC29002082B00190019B002B64
:10C4100012D0019B0948013B01930138C046C04638
:10C42000C046C046C046C046C046C046C046C046DC
:10C43000C046C046F1D1E9E702B07047E70300000B
:10C4400029DF704728DF704737B5CB680D78021CAD
:10C450009C00081C4B6949680C30009102496458E3
:10C46000291CA04737BDC046F02A002070B5194AE4
:10C4700018211378151C594351180B1D0979186997
:10C4800002290DD0042923D180235B05196989B2C3
:10C4900001F07EF9104B1B68C018FFF7D3FF12E0C4
:10C4A0000D4A59685E699B681468C0180B4BA4025A
:10C4B0000A1B001931199A4201D8920801E0802222
:10C4C0005200FFF7BDFF002803D10123AB7000E04D
:10C4D0000F2070BDFC290020FC2A0020FF03000073
:10C4E000F8B5144C061C657804200A2D20D020785D
:10C4F0002D18EDB2092D01D90A3DEDB218204543A2
:10C500006519281C0830AA61021C2E710832C0C9A6
:10C51000C0C2AB60069B4360A378002B01D0002013
:10C5200003E0FFF7A3FF1128F9D0637801336370AC
:10C53000F8BDC046FC29002070B5264B9A781C1C1B
:10C54000002A45D000229A70022808D003283FD143
:10C550001A78182151435B18191D0D2036E01D78FB
:10C560001821694359181C4B043118684E68013072
:10C5700018608002B04218D31A606378013B637080
:10C580006B1CDBB2092B01D92B1C093B002023704B
:10C59000FFF75AFF18235D430221651900232B7111
:10C5A000AB6029616B61AB61EB606378002B0FD0EE
:10C5B000A378002B0CD1FFF759FF002808D01128D1
:10C5C00006D02378182159436418211DFFF73CFF3A
:10C5D00070BDC046FC290020FC2A00200D490E4AEF
:10C5E000002310B513600B704B708B701A1C8B18E6
:10C5F000002002241832187198601C6158619861FB
:10C60000D860F02AF3D1054B1860054B18605860CC
:10C6100010BDC046FC290020FC2A0020F82A00207A
:10C62000F02A002010B5074C04222368022B07D003
:10C630005A1C0B6022600168034A9B00995000223B
:10C64000101C10BDF82A0020F02A002073B5151C1C
:10C65000CA180A43061C0C1C1020910706D100932F
:10C660000220311C221C2B1CFFF73AFF76BD13B5AC
:10C670000022041C0B1C0092211C0420FFF730FF39
:10C6800016BD000070B501230D1C002821D10B68D8
:10C69000002B1DD0104C201CA34211D0E21A3B2AC3
:10C6A00009D8221C611E3C328A4209D01E1AB65C8F
:10C6B000013A5670F8E7201C191C3C2201F0C7F81B
:10C6C000201C3C210022FEF743FD0023A08700E050
:10C6D0000E232B6070BDC046482600200323064A67
:10C6E0005B429E4502D1EFF3098101E0EFF308813F
:10C6F000886902380078104785C6030070B50E239C
:10C70000061E11D0094C3C21201C0022FEF720FD02
:10C71000A58F0B23854207D1301C211C3C220135FB
:10C7200001F095F8A5870023181C70BD482600204D
:10C7300060DF704713DF704718DF704710B586B0B1
:10C74000041C002102A81022FDF748FD02230293D9
:10C75000002C08D002A8FFF7EFFF002803D000212B
:10C760000A1CFDF70DFEE8208002FFF7E3FF00281A
:10C7700003D000210A1CFDF703FE082015494822BA
:10C78000154B00F067FF002803D000210A1CFDF7BD
:10C79000F7FD082268460021FDF720FD6A46137860
:10C7A00001220024134368466A4601941370FFF780
:10C7B000BFFFA04203D0211C221CFDF7E1FD07486A
:10C7C00000F076FF002803D000210A1CFDF7D8FDF9
:10C7D00006B010BD902E002001D70300E1C7030072
:10C7E00008B5FFF7A9FE08BD08B508201421054AC1
:10C7F000FDF7D6FD002803D000210A1CFDF7C0FD7F
:10C8000008BDC046402D002008B5031C0A1C024884
:10C81000191CFDF7B5FD08BDEFBEADDE73B5802375
:10C82000584DDB055C59B13C62425441E4B2002CE6
:10C8300001D000225A51544AA023DB05032199500C
:10C840008021A122D20009049950504B1A68E82394
:10C850009B029A4204D00020011C021CFDF790FDAF
:10C8600080235B051A698023DB009A4204D00020F4
:10C87000011C021CFDF784FD454B002000930321A1
:10C880000522444BFEF760F9002803D000210A1C62
:10C89000FDF776FD404AA026E223DB00F605F250C4
:10C8A000FEF77CFBFEF7C8FB002821D080223B4B23
:10C8B0001204F250FEF7D0FB002803D000210A1C1E
:10C8C000FDF75EFD01206040FFF738FFFFF78CFFAA
:10C8D000FEF7ECFB002803D000210A1CFDF750FDF9
:10C8E0008021A123A0220904DB00D205D15005E05C
:10C8F00001206040FFF722FFFFF776FFA022A2236E
:10C90000D205DB00D158012309098B431C43802346
:10C91000DB055959151CBB2903D11A4A002199502E
:10C9200008E0002C06D1C0239B019868FEF792FA1C
:10C93000002810D18024194B2404EC50FEF748FB4A
:10C94000002803D000210A1CFDF71AFDA123A02214
:10C95000DB00D205D450C024A401A068FEF77AFA07
:10C96000002806D0FEF768FB002802D1A068FEF779
:10C970003BFBBFF34F8F0A4A0A4BDA60BFF34F8F7E
:10C98000FEE7C0461C0500005C0700001410001004
:10C99000A9AD0300002B00200C0003000C050000D3
:10C9A0000400FA0500ED00E072DF704779DF7047A0
:10C9B0007DDF704765DF7047F0B587B00C9F061CC0
:10C9C000387800240391029200930190251C33884B
:10C9D0009D4238DA7268A900511805A8042200F0B7
:10C9E00036FF694605A813310022FFF7E3FF002850
:10C9F00032D16846C37C02998B4220D162426241A7
:10CA00003B78520059188A181F2A1ADC002C06D1CC
:10CA10009A1C3A7001330398009ADBB2D054009903
:10CA20006C463A7813348A1805A8211CFFF7C2FF18
:10CA3000002811D13A7823780124D3183B700135AE
:10CA4000C5E70C2008E00020844205D03B78019A1D
:10CA5000013B00999B1A8B5407B0F0BDF7B5089EB7
:10CA6000171C00960222051C1C1CFFF7A5FF0028BE
:10CA700006D10096281C391C1022231CFFF79CFFAE
:10CA8000FEBD0000F0B500231370037887B0061CCC
:10CA90000D1C141C002B03D1B378002B47D027E0CA
:10CAA00043780C201D2B00DD46E16F4616371D2311
:10CAB000881C391C3B80FFF77BFF002800D03BE13E
:10CAC0003378022B03D13B8809221D2B07D97378B9
:10CAD000002B02D008221D2B01D93B880822DBB293
:10CAE000591C29706A70227802329B182370D3E790
:10CAF00023780C201B2B00DD1EE16F461637381CF7
:10CB0000FFF754FF002800D016E1237839885A1C1B
:10CB100022700322EA5423785A1C22701922EA5404
:10CB20002378EA1811700233090A51702370F378E0
:10CB3000002B0ED023785A1C22700222EA5423784C
:10CB40005A1C22700122EA5423789A182270F27833
:10CB5000EA547368002B12D01A7823780C201C2B0F
:10CB600000DDE9E0591C21700221E9542378591CA9
:10CB700021700A21E9542378591C2170EA54338921
:10CB8000002B03D1338A002B16D00AE0301C00940E
:10CB90000830022106222B1CFFF760FF0028F1D08D
:10CBA000CAE0301C00941030032107222B1CFFF731
:10CBB00055FF002800D0BFE0338B002B0AD0301C7B
:10CBC00000941830142115222B1CFFF747FF002872
:10CBD00000D0B1E0336A002B42D021780C200A1C2F
:10CBE000063202911F2A00D9A6E0198807200529DC
:10CBF00000D8A1E0514A8F18514ABFB2974200D8DD
:10CC00009AE05A88052A00D896E04C4FBF18BFB268
:10CC1000BC464B4FBC4500D88EE04A4FB94204D0C9
:10CC2000BA4202D0914200D986E0029A02990132BA
:10CC3000227005226A542278511C21701221A954B5
:10CC400022781888A9180870000A4870901CC0B291
:10CC5000207059882B1819700432090A59702270F3
:10CC6000776A002F28D03A792378911C981CC9B292
:10CC700041180C201F295FDC591C03322170EA5433
:10CC800023785A1C2270FF22EA5423783988EA1844
:10CC900002331170DBB2090A51702370BA88002A7E
:10CCA0000AD0B9680720002946D0E81800F0CFFD67
:10CCB000BA882378D3182370371C2C3703973B7816
:10CCC0000020834238D0B16A814201D0029021E035
:10CCD000072031E0029A0C275743B36ADF193A79EB
:10CCE00023780332591C2170EA5423785A1C22708D
:10CCF0001622EA5420783A882B1802301A70C0B2F3
:10CD0000120A5A702070BA88002A09D1029B013396
:10CD1000DBB20293039F3B78029FBB42DAD80AE062
:10CD2000B9680029D4D0281800F091FDBA8823787A
:10CD3000D3182370EAE7002007B0F0BD7FF3FFFFB0
:10CD40007DF30000FFFF0000F0B593B06D466E4626
:10CD50000023063507360C1C2B703370984204D024
:10CD6000C3785A070FD407201DE0071C002C03D0FE
:10CD7000E378002BF7D10EE0221C29783378381C99
:10CD8000FFF712FE0FE002A92A1CFFF77BFE02AF9D
:10CD90000028EBD007E0321C201C0AA9FFF772FE26
:10CDA0000AAA0028E9D013B0F0BD75DF704776DF1E
:10CDB00070477ADF70477BDF7047000037B5174B4D
:10CDC0001888174B984227D0164B174D1A782C1CF1
:10CDD0000132D2B21A70297B914208D31349FFF76E
:10CDE000E4FF002818D0AB69002B14D114E0002216
:10CDF0001A702B7C934208D03B21FFF7D8FF002804
:10CE000003D0AB69002B00D098476369002B03D097
:10CE100001A800220270984737BDC046042F0020A9
:10CE2000FFFF0000E22E0020E42E0020062F00204D
:10CE300037B5184B184A5B881188184C184D994221
:10CE40000CD852889A4209D36369002B03D001A8F9
:10CE500001220270984700232B7037BD2B78002BDE
:10CE600005D06369002BF6D001A80022F1E70D4B35
:10CE70001B78002B01D1616800E0A1680A4B0022F9
:10CE80001868FDF701FF0028E5D0A369002BE1D168
:10CE9000E1E7C046DA2E0020062F0020E42E002015
:10CEA000D82E0020E22E0020002F002070B514495B
:10CEB000021C0B1C70CA70C332CA32C31268114CF8
:10CEC0001A600168104B00221A70201C914213D086
:10CED000082200F0BCFC201CFFF76BFF00280ED1DD
:10CEE0000A4B012252421A80094B0021094A0A4882
:10CEF0001970FDF7A1FE02E0FFF75DFFEEE770BDE0
:10CF0000E42E0020062F0020D82E0020042F002021
:10CF1000E22E0020BDCD0300002F002008B5024BFB
:10CF20001868FDF7FFFE08BD002F002010B503882C
:10CF3000112B19D002D8102B05D043E0122B3AD078
:10CF4000502B21D03EE082881F4B011C1A801631E5
:10CF500008221E4800F07BFC1D4B00221A701D4B5E
:10CF6000DB8993422ED12BE0174B012252421A80CB
:10CF7000174B00221A70184B1868FDF7D3FE0028D3
:10CF800020D0144B9B6912E0124CC188E289914277
:10CF900018D1C38B022B15D10130C37FDA070FD410
:10CFA0000D4B1868FDF7BEFE00280BD0A369002BBF
:10CFB00008D0984706E0811D0822044800F047FC8D
:10CFC000FFF736FF10BDC046042F0020DA2E0020E8
:10CFD000E22E0020E42E0020002F0020A0DF70476A
:10CFE000A2DF7047A5DF7047A6DF7047A8DF704754
:10CFF00063DF7047F0B599B002900391002800D12B
:10D000000BE1002900D108E14A680E24002A00D172
:10D0100004E101235B4203808249102208A800F04A
:10D0200016FC814B694606AD08A81A312B80FFF724
:10D03000DFFF041E00D0F1E0029A01200432291C17
:10D04000FFF7CCFF041E00D0E8E0AB78029A11ADE8
:10D050009371211C1C22281CFDF7C0F82B78042298
:10D060001343029A6C60EC602C616C61AC612B70B4
:10D0700093796A4693776D4B05AF9383211C032206
:10D08000381CFDF7ABF800233B700122102313433B
:10D090007B70BB78062293430222134308229343FA
:10D0A00010220CAE934301221343211C1422301C86
:10D0B000BB70FDF793F807AB0C931422029B3481ED
:10D0C0007481B281346177609888291C321C0833DE
:10D0D000FFF786FF041E00D0A0E0211C1C22281CA4
:10D0E000FDF77CF82B780822134310221343029A91
:10D0F0006C60EC602C616C61AC612B7093796A465A
:10D1000093774B4B211C9383381C0322FDF766F861
:10D1100000233B707B780F229343012213430F229D
:10D120001340102213437B70BB78062293430222E4
:10D130001343082293431022134301221343211C5B
:10D140001422301CBB70FDF749F807AB0C93172372
:10D15000B381029A029B3481748134617760908834
:10D16000291C321C1033FFF73BFF041E56D1211C33
:10D170001C22281CFDF732F82B7802221343029A56
:10D180006C60EC602C616C61AC612B7093796A46C9
:10D190009377284B211C9383381C0322FDF71EF83C
:10D1A0003B780F229343012213430F221340102296
:10D1B00013433B7000237B70BB780622934302220B
:10D1C0001343082293431022934301221343211C4B
:10D1D0001422301CBB70FDF701F802223281B281AB
:10D1E00007AB039A3360029B748132617760988841
:10D1F000291C321C2033FFF7F3FE041E0ED1039AC4
:10D20000029B52689A62039A9368002B01D0029A9B
:10D21000D362094B01221A7000E00E24201C19B0C1
:10D22000F0BDC04698D8030030150000321500004C
:10D2300031150000341500000E2F0020F0B5061C3B
:10D2400087B000282BD00288164B08209A4227D09E
:10D25000154B1B78002B23D0144C080AE170207169
:10D26000080C090E02AD0723A1716946102201279F
:10D270006071CB80281C002163702270A770FCF7BE
:10D28000ADFF338A30882B800023AB8006236B44AC
:10D29000291CAF70AB60EC60FFF7A6FE00E00E202B
:10D2A00007B0F0BDFFFF00000E2F00200F2F002061
:10D2B000F0B5061C87B0002829D00288154B08203D
:10D2C0009A4225D0144B1B78002B21D0134D1123EB
:10D2D0002B700B0A02AC6970AB700B0C090EEB7073
:10D2E00029716F460523201C00211022FB80FCF7CA
:10D2F00075FF338A063723800123A370308800230B
:10D30000211CA380A760E560FFF76EFE00E00E2001
:10D3100007B0F0BDFFFF00000E2F00200F2F0020F0
:10D32000F0B5051C87B0002824D00488134B0820D2
:10D330009C4220D0124B1B78002B1CD0114E02AC0B
:10D34000102371706F460321F980B270201C1A1CE3
:10D3500000213370FCF742FF2B8A0637238001231C
:10D36000A37028880023211CA380A760E660FFF734
:10D370003BFE00E00E2007B0F0BDC046FFFF0000FE
:10D380000E2F00200F2F0020F0B5041C89B00E1CBA
:10D39000002800D1AFE0002900D1ACE0826A002A69
:10D3A00000D1A8E00B88112B18D004D8102B00D086
:10D3B000A1E08B8814E0502B02D0512B12D09AE0C0
:10D3C000C9880389994200D095E004A908230B700D
:10D3D000F38B20360B718E6090478CE001235B420B
:10D3E000238088E08A79022A00D084E00A89038AAF
:10D3F0009A4200D07FE08B7A043B022B00D87AE07F
:10D4000001AD022204AF3A7000210822281CFCF76B
:10D41000E5FE022300AA2B806A6000232088A18AEF
:10D420002A1C6B80FFF7DEFD002804D0E36A002B86
:10D4300005D0984703E06A461378DA0707D4FE233D
:10D44000FF332088391CBB80FFF7D0FD4DE0B8804A
:10D45000391C2088FFF7CAFD002846D1F31CD97F6C
:10D46000481E07283DD800F07FF9040E1B1D1F2120
:10D470003A2300232B70338C012B02D8201C01216E
:10D4800008E0012308E001232B70328C9A4203D874
:10D49000201C0221062226E023362B71AE6019E003
:10D4A000022316E0032314E0042312E0052310E016
:10D4B000338C022B02D8201C082113E0731DDB7F64
:10D4C0000436F27F1B021343AB8001D1072300E037
:10D4D00006232B70A36A201C291C98470BE0092304
:10D4E000F7E7201C0322FFF71BFF002803D0E36AA5
:10D4F000002B00D0984709B0F0BD000010B51C4BC0
:10D500001A78181C012A12D11A4B1B6819070ED160
:10D51000194BF0221B68E024191C1140234204D14E
:10D52000164B1B68134202D118E03029F8D003785B
:10D53000012B1BD10F4A1268110717D10E4A11682F
:10D54000F0221140402911D10C49096811420DD136
:10D55000C1228021D200C9058B5007E00849094A41
:10D5600011608021084A09021160E0E710BDC04641
:10D57000E00F00F0E40F00F0E80F00F0EC0F00F017
:10D58000DFFF07C004050040186C00402EDF704725
:10D5900051DF704710DF704761DF704708B5081C26
:10D5A000111CFFF731F908BDF0B5254B85B01B788C
:10D5B000002B42D0234E244F3268544254413A68E3
:10D5C000E4B255425541EDB2002C34D103A8FFF727
:10D5D000DFFF05280AD0002804D0211C221CFCF7FC
:10D5E000CFFE04E003983368984700E00124002D43
:10D5F0001ED1164B03A91B880B80154B1B68181CEA
:10D600000193FFF7C9FF051E052D0BD0002805D09B
:10D6100000210A1CFCF7B4FE002504E001983A68DA
:10D62000904700E00125002CCED0002DCCD004E0A6
:10D63000002C02D1C8E7002DDBD005B0F0BDC046FC
:10D64000162F0020202F0020242F0020182F00202C
:10D650001C2F002038B5041C0720002913D08D078B
:10D6600011D1094801600949201C0A80084A09496A
:10D670001360FFF78FFF002805D1074B012216200A
:10D680001A70FFF783FF38BD1C2F0020182F0020D1
:10D69000282F00209DD50300162F0020002803D03E
:10D6A000024B1860002000E00E207047242F00205D
:10D6B000002803D0024B1860002000E00E207047C5
:10D6C000202F002008B5074B1B68002B07D0984778
:10D6D000002806D000210A1CFCF752FE01E0FFF7EB
:10D6E00063FF08BD282F002008B5002904D00020C2
:10D6F000011C021CFCF744FEFFF756FF08BD0000AA
:10D7000008B50020011C024AFCF770FE08BDC046A7
:10D71000E9D6030003210A4802680A430260094867
:10D7200002680A4302600849084A094B9B1A03DD54
:10D73000043BC858D050FBDC0648804706480047E9
:10D740002405004054050040B0D80300E025002027
:10D7500048260020FDD40300C1A00300FEE7FEE739
:10D76000FEE7FEE7FEE7FEE702B47146490849001E
:10D77000095C49008E4402BC7047C04603B4714640
:10D78000490840004900095A49008E4403BC7047CB
:10D79000002934D00123002210B488422CD3012464
:10D7A0002407A14204D2814202D209011B01F8E7F9
:10D7B000E400A14204D2814202D249005B00F8E7B2
:10D7C000884201D3401A1A434C08A04202D3001BDE
:10D7D0005C0822438C08A04202D3001B9C08224311
:10D7E000CC08A04202D3001BDC082243002803D04F
:10D7F0001B0901D00909E3E7101C10BC7047002881
:10D8000001D00020C04307B4024802A14018029092
:10D8100003BDC046190000000029F0D003B5FFF792
:10D82000B9FF0EBC4243891A1847C0467047C0462C
:10D8300030B50023934208D0C55C0133CC18013CBD
:10D840002478A542F6D0281B00E0002030BD10B59A
:10D850000023934203D0CC5CC4540133F9E710BDDC
:10D860000023C25C0133002AFBD1581E7047000020
:10D87000F8B5C046F8BC08BC9E467047F8B5C0462F
:10D88000F8BC08BC9E46704743000000E02500201D
:10D89000446675546172670023D1BCEA5F78231532
:08D8A000DEEF1212000000008F
:08D8A80018C8FF7F0100000019
:10D8B0000000000000000000000000000000000068
:10D8C0000000000000000000000000000000000058
:10D8D00088D80300000000000000000000000000E5
:10D8E0000000000000000000000000000000000038
:10D8F0000000000000000000000000000000000028
:10D900000000000000000000000000000000000017
:08D91000FFFF000032000000DF
:10D9180000000000000000000000000000000000FF
:10D9280000000000000000000000000000000000EF
:10D9380000000000000000000000000000000000DF
:0ED948000000000000000000000000000000D1
:040000033000D715DD
:00000001FF
